:100000000C9435000C945D000C945D000C945D0024
:100010000C945D000C945D000C9430010C945D0018
:100020000C945D000C945D000C945D000C945D00DC
:100030000C945D000C945D000C9419010C945D000F
:100040000C945D000C945D000C945D000C945D00BC
:100050000C945D000C945D000C945D000C945D00AC
:100060000C945D000C945D008E0211241FBECFEF36
:10007000D8E0DEBFCDBF11E0A0E0B1E0EAE7F1E1FA
:1000800002C005900D92AA31B107D9F721E0AAE18B
:10009000B1E001C01D92A434B207E1F710E0C5E35E
:1000A000D0E004C02197FE010E94AC08C433D10700
:1000B000C9F70E94A0010C94BB080C940000E1EC6D
:1000C000F0E010821092C000A2ECB0E08C918E6043
:1000D0008C938EEC8093C4001092C500808188615F
:1000E0008083089590E49093C000E0ECF0E090816C
:1000F00095FFFDCF8093C600E0ECF0E0808186FFA5
:10010000FDCF089590E49093C000E0ECF0E0908182
:1001100095FFFDCF8093C600E0ECF0E0808186FF84
:10012000FDCF0895E0ECF0E080818823ECF780912A
:10013000C60008950F931F93CF93FC0180818823FD
:1001400059F08F01C0E00E947200CF5FF801EC0F00
:10015000F11D80818111F7CFCF911F910F910895EB
:1001600061307105F1F48830910570F044B1089761
:1001700021E030E0B90102C0660F771F8A95E2F7EF
:10018000CB01842B84B908954AB121E030E0B90154
:1001900002C0660F771F8A95E2F7CB01842B8AB9DC
:1001A0000895089718F084B184B908958AB18AB97E
:1001B00008956623F1F08830910570F045B10897F5
:1001C00021E030E0B90102C0660F771F8A95E2F79F
:1001D000CB01842B85B908954BB121E030E0B90102
:1001E00002C0660F771F8A95E2F7CB01842B8BB98B
:1001F00008958830910578F045B1089721E030E006
:10020000B90102C0660F771F8A95E2F7CB0180958E
:10021000842385B908954BB121E030E0B90102C0D3
:10022000660F771F8A95E2F7CB01809584238BB9FF
:1002300008951F920F920FB60F9211248F939F93E0
:1002400080912A0190912B01019690932B0180932C
:100250002A019F918F910F900FBE0F901F901895BC
:100260001F920F920FB60F9211240F900FBE0F9096
:100270001F9018955B9A88EE93E028EC30E0F90126
:100280003197F1F70197D9F75B9808950F931F9372
:10029000CF93DF930E949200833409F04CC0809189
:1002A0000001853008F047C08130E1F5C6E2D1E0B9
:1002B0000AE211E089910E948200C017D107D1F7AC
:1002C00080910001823089F5C2E2D1E006E211E0BE
:1002D00089910E948200C017D107D1F78091000157
:1002E000833031F5CEE1D1E002E211E089910E9444
:1002F0008200C017D107D1F780910001843061F4EA
:10030000CAE1D1E00EE111E089910E948200C0179C
:10031000D107D1F710920001809100018F5F809387
:10032000000109C08230D1F6CFCF833029F7DACF70
:10033000843091F7E5CFDF91CF911F910F91089510
:10034000CF93DF9300D000D01F92CDB7DEB70E94CD
:100350005F008CE291E00E94E70561E070E08DE0D3
:1003600090E00E94B00062E08CE291E00E94AA0559
:1003700063E08CE291E00E9491050F2EF2EEEF2EE9
:10038000F02D0F2EF0EFFF2EF02D00EF10EF20EFED
:1003900030E040E050E061E08CE291E00E94AB048C
:1003A0000F2EF3EEEF2EF02D20EF30E040E050E086
:1003B00062E08CE291E00E94AB040F2EF4EEEF2E8F
:1003C000F02D20EF30E040E050E063E08CE291E07F
:1003D0000E94AB040F2EF5EEEF2EF02D20EF30E053
:1003E00040E050E064E08CE291E00E94AB048CE2DB
:1003F00091E00E944105A12CB12CC12CD12C01E02F
:10040000102F0F2EF8ECEF2EF12CF02D1D821A82FA
:1004100019821C821B827894BE016B5F7F4F8CE235
:1004200091E00E947D04882309F452C044E0BE019B
:100430006F5F7F4F8CE291E00E949E048D818C83E0
:100440008230B9F018F4813031F03DC08330F9F0DA
:10045000843059F138C089819A81AB81BC81809305
:10046000260190932701A0932801B0932901D12E52
:10047000D3CF89819A81AB81BC81809322019093F3
:100480002301A0932401B0932501C12EC5CF8981FA
:100490009A81AB81BC8180931E0190931F01A09330
:1004A0002001B0932101B12EB7CF89819A81AB8110
:1004B000BC8180931A0190931B01A0931C01B093FF
:1004C0001D01A12EA9CF81E091E00E949A00A4CF46
:1004D000DD2009F49BCFCC2009F498CFBB2009F490
:1004E00095CFAA2009F492CF602F8DE090E00E9472
:1004F000D90080E197E2F7013197F1F70197D9F739
:1005000060E08DE090E00E94D9000E943A010E94D4
:100510004601A12CB12CC12CD12C78CF4AE050E05F
:1005200069E070E08CE291E00E944A0408954F92E5
:100530005F926F927F928F929F92AF92BF92CF9273
:10054000DF92EF92FF921F93CF93DF93EC018A81AA
:100550009B810E94D9006C897D898E899F890E9428
:1005600088076B017C012BEA3AEA4AE250E40E94D8
:100570003F084B015C0120E030E040E85FE30E946F
:10058000E20688230CF46EC0A7019601C701B601EC
:100590000E9476062B013C0120E03FEF4FE757E435
:1005A0000E943A0818160CF045C020E030E04AE7F7
:1005B00054E4C701B6010E94E7064B015C0120E04C
:1005C00030E04AEF54E40E943F086B017C0120E0D8
:1005D00030E040E85FE30E94E20688232CF120E04F
:1005E0003FEF4FE757E4C701B6010E943A081816DB
:1005F000B4F420E030E040E251E4C501B4010E94CF
:100600003F080E9459076115710569F128EC30E037
:10061000C9010197F1F761507109D1F724C0C701F1
:10062000B6010E94590702C061E070E0CB0101975A
:10063000F1F719C020E030E04FE753E4C501B40101
:100640000E943A08181644F4C301B2010E945907E7
:10065000CB010197F1F70AC0C501B4010E94590707
:10066000162F01C011E0612F6A95F1F7DF91CF914C
:100670001F91FF90EF90DF90CF90BF90AF909F9031
:100680008F907F906F905F904F900895FC018081D4
:100690009181228133818217930711F00E94D90042
:1006A00084E091E00197F1F708950F931F93CF93A2
:1006B0008C01C62F80E58CBD1DBC60E0C8010E9486
:1006C0009702CF71CEBD00000DB407FEFDCF8EB5F1
:1006D0008FEF8EBD00000DB407FEFDCFCEB561E0FB
:1006E000C8010E9497028C2FCF911F910F910895FE
:1006F000EF92FF920F931F93CF93DF938C01C62F3E
:10070000E42EF52ED22F80E58CBD1DBC60E0C80123
:100710000E949702CF71C062CEBD00000DB407FEEB
:10072000FDCFCEB58FEF8D0FDD2359F0EE2DFF2DD0
:1007300091919EBD00000DB407FEFDCF9EB5815086
:10074000B8F761E0C8010E9497028C2FDF91CF912A
:100750001F910F91FF90EF9008950F931F93CF93E8
:10076000DF938C01C62FD42F80E58CBD1DBC60E0CB
:10077000C8010E949702CF71C062CEBD00000DB4C7
:1007800007FEFDCFCEB5DEBD00000DB407FEFDCFE8
:100790008EB561E0C8010E9497028C2FDF91CF9146
:1007A0001F910F910895DF92EF92FF920F931F9385
:1007B000CF93DF93EC01D62EE72E8F81082F4817B9
:1007C00008F4042F9885911103C0182F101B01C045
:1007D00010E080E58CBD1DBC60E0CE010E94970258
:1007E00081E68EBD00000DB407FEFDCFFEB48FEF95
:1007F000800F011105C08FEF810F11110EC016C0BF
:10080000ED2DFE2D2FEF2EBD00000DB407FEFDCF08
:100810009EB591938150B8F7EECF9FEF9EBD00003B
:100820000DB407FEFDCF2EB58150C0F761E0CE01BB
:100830000E9497028F2DDF91CF911F910F91FF9012
:10084000EF90DF9008951F93CF93DF93EC01162F65
:1008500080E58CBD1DBC60E0CE010E9497021EBDEC
:1008600000000DB407FEFDCF1EB561E0CE010E9471
:100870009702812FDF91CF911F91089562EE0E9420
:100880002304089561EE0E94230408956FEF0E94EF
:1008900023040895FC01718360835383428316828D
:1008A00080E28783108685E0868785E090E0A0E07F
:1008B000B0E0848B958BA68BB78B118608956D372E
:1008C00010F4462F01C04DE765E00E94AD03089586
:1008D000CF93DF93EC0160E00E94550381FD0AC0D5
:1008E000482F426060E0CE010E94AD0380E197E2B4
:1008F0000197F1F7DF91CF9108950F931F93CF9355
:10090000DF93EC018B0167E10E94550380FD0EC06F
:100910000115110569F0CE010E94460490E09595FD
:1009200087958770F801808381E003C080E001C073
:1009300081E0DF91CF911F910F910895CF93DF93C5
:10094000EC010E94D30340E767E0CE010E94AD03B3
:10095000DF91CF910895AF92BF92DF92EF92FF9215
:100960000F931F93CF93DF93CDB7DEB728970FB6C2
:10097000F894DEBF0FBECDBF5C01D62EE982FA82AD
:100980000B831C832D833E834F83588761110BC0DB
:10099000DC011E964C9150E0BE016F5F7F4F0996BF
:1009A0000E94B20806C0B6E0B617E8F1E1E0E6172B
:1009B00078F0ED2DF0E0E25FFE4FD5011E962C9110
:1009C000AE014F5F5F4F6081C5010E9478030BC08D
:1009D000E62FF0E0E25FFE4F21E0AE014F5F5F4F98
:1009E00060810E9478030D2D10E0F801E85FFE4F52
:1009F000D50117964C916081C5010E94AD0362E05C
:100A0000C5010E945503F801EC5EFE4F41E050E045
:100A1000008002C0440F551F0A94E2F7482B62E0A1
:100A2000C5010E94AD0328960FB6F894DEBF0FBE35
:100A3000CDBFDF91CF911F910F91FF90EF90DF908D
:100A4000BF90AF9008951F93CF93DF93EC01162FC3
:100A500062E00E945503E12FF0E0EC5EFE4F41E0C2
:100A600050E0008002C0440F551F0A94E2F7409501
:100A7000482362E0CE010E94AD03DF91CF911F9128
:100A80000895CF93DF93EC0160E00E945503482F57
:100A9000416060E0CE010E94AD0340E767E0CE0117
:100AA0000E94AD0361E0CE010E9446038985882340
:100AB00049F02E85AE01475F5F4F6AE0CE010E948C
:100AC000780304C060E0CE010E9423056DE1CE01F1
:100AD0000E94550381FF03C0CE010E944204DF91B2
:100AE000CF9108951F93CF93DF93EC0110E51CBDC8
:100AF0001DBC60E00E9497021EBD00000DB407FE01
:100B0000FDCF8EB583E78EBD00000DB407FEFDCF8F
:100B10008EB561E0CE010E949702DF91CF911F91C7
:100B200008950F931F93CF938C01C62F66E00E9408
:100B30005503887FC43018F4CC0FCF5F01C0C7E0E5
:100B40004C2F482B66E0C8010E94AD03CF911F9146
:100B50000F9108950F931F93CF93DF93EC01062F0E
:100B600066E00E945503182F177D023051F4106281
:100B70008BE990E0A0E0B0E0888B998BAA8BBB8BCF
:100B800014C0013049F085E590E0A0E0B0E0888B2A
:100B9000998BAA8BBB8B09C0186081E490E0A0E020
:100BA000B0E0888B998BAA8BBB8B412F66E0CE017E
:100BB0000E94AD0366E0CE010E94550391E0181338
:100BC00090E0892FDF91CF911F910F9108951F938E
:100BD000CF93DF93EC01888199812A813B81821731
:100BE000930721F061E070E00E94B00061E070E0E6
:100BF0008A819B810E94B0000E945C0660E0CE0169
:100C00000E94460361E0CE010E94970280E197E2D4
:100C10000197F1F74CE060E0CE010E94AD034FE593
:100C200064E0CE010E94AD0362E0CE010E94AA05FD
:100C3000882311F081E08E8366E0CE010E94550387
:100C4000182F8E3011F481E08E8360E0CE010E9477
:100C5000AA05CE010E94720540E06DE1CE010E941E
:100C6000AD0340E06CE1CE010E94AD03188640E781
:100C700067E0CE010E94AD036CE4CE010E945F04E8
:100C8000CE010E943E04CE010E944204CE010E9489
:100C9000680460E0CE010E945503482F4E7F60E05B
:100CA000CE010E94AD03115081E01E3F08F080E0AC
:100CB000DF91CF911F91089561E070E08AE090E0AC
:100CC0000E94B0008CB580618CBD8CB580648CBDF9
:100CD00061E070E08DE090E00E94B00061E070E0C3
:100CE0008BE090E00E94B00008955058BB27AA27DF
:100CF0000E948D060C9400080E94F20738F00E94B2
:100D0000F90720F039F49F3F19F426F40C94EF070B
:100D10000EF4E095E7FB0C94E907E92F0E94110817
:100D200058F3BA17620773078407950720F079F420
:100D3000A6F50C9433080EF4E0950B2EBA2FA02DD7
:100D40000B01B90190010C01CA01A0011124FF2778
:100D5000591B99F0593F50F4503E68F11A16F04073
:100D6000A22F232F342F4427585FF3CF4695379572
:100D70002795A795F0405395C9F77EF41F16BA0B37
:100D8000620B730B840BBAF09150A1F0FF0FBB1FE5
:100D9000661F771F881FC2F70EC0BA0F621F731F2E
:100DA000841F48F4879577956795B795F7959E3F8B
:100DB00008F0B0CF9395880F08F09927EE0F97951C
:100DC000879508950E94C50708F481E008950E9460
:100DD000FB060C9400080E94F90758F00E94F207E5
:100DE00040F029F45F3F29F00C94E90751110C946D
:100DF00034080C94EF070E94110868F39923B1F3AB
:100E0000552391F3951B550BBB27AA276217730730
:100E1000840738F09F5F5F4F220F331F441FAA1FC4
:100E2000A9F335D00E2E3AF0E0E832D09150504080
:100E3000E695001CCAF72BD0FE2F29D0660F771F2E
:100E4000881FBB1F261737074807AB07B0E809F014
:100E5000BB0B802DBF01FF2793585F4F3AF09E3F99
:100E6000510578F00C94E9070C9434085F3FE4F3E3
:100E7000983ED4F3869577956795B795F7959F5FDC
:100E8000C9F7880F911D9695879597F90895E1E028
:100E9000660F771F881FBB1F621773078407BA0787
:100EA00020F0621B730B840BBA0BEE1F88F7E095E2
:100EB00008950E94190888F09F5798F0B92F992734
:100EC000B751B0F0E1F0660F771F881F991F1AF035
:100ED000BA95C9F714C0B13091F00E943308B1E05F
:100EE00008950C943308672F782F8827B85F39F05E
:100EF000B93FCCF3869577956795B395D9F73EF4CE
:100F000090958095709561957F4F8F4F9F4F089575
:100F1000E89409C097FB3EF4909580957095619593
:100F20007F4F8F4F9F4F9923A9F0F92F96E9BB2749
:100F30009395F695879577956795B795F111F8CFC5
:100F4000FAF4BB0F11F460FF1BC06F5F7F4F8F4F30
:100F50009F4F16C0882311F096E911C0772321F026
:100F60009EE8872F762F05C0662371F096E8862FBE
:100F700070E060E02AF09A95660F771F881FDAF715
:100F8000880F9695879597F90895990F0008550F42
:100F9000AA0BE0E8FEEF16161706E807F907C0F0FF
:100FA00012161306E407F50798F0621B730B840B07
:100FB000950B39F40A2661F0232B242B252B21F4E1
:100FC00008950A2609F4A140A6958FEF811D811D81
:100FD000089597F99F6780E870E060E008959FEFBB
:100FE00080EC089500240A941616170618060906C0
:100FF000089500240A94121613061406050608958F
:10100000092E0394000C11F4882352F0BB0F40F416
:10101000BF2B11F460FF04C06F5F7F4F8F4F9F4F56
:10102000089557FD9058440F551F59F05F3F71F0D8
:101030004795880F97FB991F61F09F3F79F087953F
:101040000895121613061406551FF2CF4695F1DFC8
:1010500008C0161617061806991FF1CF8695710558
:10106000610508940895E894BB2766277727CB018C
:1010700097F908950E94C50708F48FEF08950E941C
:1010800052080C9400080E94F20738F00E94F907F9
:1010900020F0952311F00C94E9070C94EF0711242C
:1010A0000C9434080E94110870F3959FC1F3950FBA
:1010B00050E0551F629FF001729FBB27F00DB11DDC
:1010C000639FAA27F00DB11DAA1F649F6627B00D6C
:1010D000A11D661F829F2227B00DA11D621F739F55
:1010E000B00DA11D621F839FA00D611D221F749F63
:1010F0003327A00D611D231F849F600D211D822FAA
:10110000762F6A2F11249F5750409AF0F1F08823D0
:101110004AF0EE0FFF1FBB1F661F771F881F9150FD
:101120005040A9F79E3F510580F00C94E9070C94BC
:1011300034085F3FE4F3983ED4F38695779567953E
:10114000B795F795E7959F5FC1F7FE2B880F911D27
:101150009695879597F90895EE0FFF1F0590F491E6
:10116000E02D0994FB01DC0102C001900D92415079
:0A1170005040D8F70895F894FFCF1F
:10117A00014E6F70697065001112131415160A0B6F
:0A118A000C0D0E0F00010203040516
:00000001FF
