S0120000524672656365697665722E7372656325
S11300000C9435000C945D000C945D000C945D0020
S11300100C945D000C945D000C945D000C945D00E8
S11300200C945D000C945D000C945D000C945D00D8
S11300300C945D000C945D000C94E1010C945D0043
S11300400C945D000C945D000C945D000C945D00B8
S11300500C945D000C945D000C945D000C945D00A8
S11300600C945D000C945D006B0211241FBECFEF55
S1130070D8E0DEBFCDBF11E0A0E0B1E0E2E1F1E104
S113008002C005900D92A234B107D9F721E0A2E491
S1130090B1E001C01D92AD35B207E1F710E0C5E350
S11300A0D0E004C02197FE010E947808C433D10730
S11300B0C9F70E94F8010C9487080C940000E1EC45
S11300C0F0E010821092C000A2ECB0E08C918E603F
S11300D08C9383E38093C4001092C500808188616F
S11300E08083089590E49093C000E0ECF0E0908168
S11300F095FFFDCF8093C600E0ECF0E0808186FFA1
S1130100FDCF08950F931F93CF938C01FC01808141
S1130110882351F0C0E00E947200CF5FF801EC0F19
S1130120F11D80818111F7CF8AE00E947200CF9186
S11301301F910F9108950F931F93CF93FC0180811A
S1130140882359F08F01C0E00E947200CF5FF8014C
S1130150EC0FF11D80818111F7CFCF911F910F9189
S113016008950F931F93CF93DF938C019C013295D5
S113017022952F7023273F702327A7E4B3E00E9422
S11301806908969587959695879596958795805D48
S1130190803311F00E9472009801329522952F70DD
S11301A023273F702327A7E4B3E00E946908EC01EA
S11301B0D695C795D695C795D695C79520E137E2CC
S11301C0C29FC001C39F900DD29F900D1124E801DE
S11301D0C81BD90B9E0136952795369527953695DC
S11301E02795A5ECB0E20E946908929582958F70DC
S11301F089279F708927805D803311F00E947200E7
S11302009E01369527953695279536952795A5EC25
S1130210B0E20E9469088C01129502950F700127C3
S11302201F70012728EE33E0029FC001039F900D49
S1130230129F900D11248E01081B190B98013695FD
S1130240279536952795ABE7B4E10E946908969502
S11302508795805D803311F00E9472009801369575
S1130260279536952795ABE7B4E10E946908EC0120
S1130270D695C79524E62C9FC0012D9F900D11247F
S1130280E801C81BD90B9E01ADECBCEC0E946908C7
S1130290969587959695879596958795805D8033F5
S11302A011F00E9472009E01ADECBCEC0E94690842
S11302B09695879596958795969587959C01220F97
S11302C0331F880F991F880F991F880F991F820F5A
S11302D0931F9E01281B390BC901805D0E94720087
S11302E08AE00E947200DF91CF911F910F910895CF
S11302F061307105F1F48830910570F044B10897CC
S113030021E030E0B90102C0660F771F8A95E2F759
S1130310CB01842B84B908954AB121E030E0B901BE
S113032002C0660F771F8A95E2F7CB01842B8AB946
S11303300895089718F084B184B908958AB18AB9E8
S113034008956623F1F08830910570F045B108975F
S113035021E030E0B90102C0660F771F8A95E2F709
S1130360CB01842B85B908954BB121E030E0B9016C
S113037002C0660F771F8A95E2F7CB01842B8BB9F5
S113038008958830910578F045B1089721E030E070
S1130390B90102C0660F771F8A95E2F7CB018095F9
S11303A0842385B908954BB121E030E0B90102C03E
S11303B0660F771F8A95E2F7CB01809584238BB96A
S11303C008951F920F920FB60F9211248F939F934B
S11303D0809142019091430101969093430180934F
S11303E042019F918F910F900FBE0F901F9018950F
S11303F0CF93DF93CDB7DEB7A1970FB6F894DEBFE6
S11304000FBECDBF60E875E280E090E00E945F001F
S113041085E491E00E94A40549E251E060E085E4AE
S113042091E00E94880463E085E491E00E9448051D
S113043062E085E491E00E94670585E491E00E9412
S1130440F8040F2EFEE1FF2EF02D8E010D5F1F4FDD
S113045019A2BE016F5D7F4F85E491E00E945A04AA
S11304608823B1F31A821982F8018F2D11928A958B
S1130470E9F740E2BE016F5F7F4F85E491E00E949F
S11304807B04CE0101960E94820081E091E00E94EB
S11304909B008091000190E00E94B1008FE091E008
S11304A00E949B0089A190E00E94B100809100010C
S11304B08F5F8093000185E491E00E946105809341
S11304C044018CE191E00E949B008091440190E002
S11304D00E94B100BECF4AE050E069E070E085E4DC
S11304E091E00E94270408954F925F926F927F9249
S11304F08F929F92AF92BF92CF92DF92EF92FF9230
S11305001F93CF93DF93EC018A819B810E94A10109
S11305106C897D898E899F890E9445076B017C01C6
S11305202BEA3AEA4AE250E40E94FC074B015C01E0
S113053020E030E040E85FE30E949F0688230CF44B
S11305406EC0A7019601C701B6010E9433062B01B4
S11305503C0120E03FEF4FE757E40E94F7071816ED
S11305600CF045C020E030E04AE754E4C701B6018E
S11305700E94A4064B015C0120E030E04AEF54E401
S11305800E94FC076B017C0120E030E040E85FE35F
S11305900E949F0688232CF120E03FEF4FE757E4A9
S11305A0C701B6010E94F7071816B4F420E030E042
S11305B040E251E4C501B4010E94FC070E94160701
S11305C06115710569F128EC30E0C9010197F1F773
S11305D061507109D1F724C0C701B6010E94160702
S11305E002C061E070E0CB010197F1F719C020E08F
S11305F030E04FE753E4C501B4010E94F707181631
S113060044F4C301B2010E941607CB010197F1F72C
S11306100AC0C501B4010E941607162F01C011E0DB
S1130620612F6A95F1F7DF91CF911F91FF90EF90C1
S1130630DF90CF90BF90AF909F908F907F906F90FE
S11306405F904F900895FC018081918122813381D4
S11306508217930711F00E94A10184E091E00197B1
S1130660F1F708950F931F93CF938C01C62F80E564
S11306708CBD1DBC60E0C8010E947402CF71CEBD68
S113068000000DB407FEFDCF8EB58FEF8EBD0000C8
S11306900DB407FEFDCFCEB561E0C8010E9474021F
S11306A08C2FCF911F910F910895EF92FF920F938A
S11306B01F93CF93DF938C01C62FE42EF52ED22FF8
S11306C080E58CBD1DBC60E0C8010E947402CF713E
S11306D0C062CEBD00000DB407FEFDCFCEB58FEFD6
S11306E08D0FDD2359F0EE2DFF2D91919EBD00005D
S11306F00DB407FEFDCF9EB58150B8F761E0C80187
S11307000E9474028C2FDF91CF911F910F91FF9063
S1130710EF9008950F931F93CF93DF938C01C62F0F
S1130720D42F80E58CBD1DBC60E0C8010E9474021A
S1130730CF71C062CEBD00000DB407FEFDCFCEB5B3
S1130740DEBD00000DB407FEFDCF8EB561E0C8012B
S11307500E9474028C2FDF91CF911F910F91089505
S1130760DF92EF92FF920F931F93CF93DF93EC01ED
S1130770D62EE72E8F81082F481708F4042F98856A
S1130780911103C0182F101B01C010E080E58CBD2F
S11307901DBC60E0CE010E94740281E68EBD0000A3
S11307A00DB407FEFDCFFEB48FEF800F011105C01D
S11307B08FEF810F11110EC016C0ED2DFE2D2FEFFE
S11307C02EBD00000DB407FEFDCF9EB59193815060
S11307D0B8F7EECF9FEF9EBD00000DB407FEFDCF2E
S11307E02EB58150C0F761E0CE010E9474028F2DB6
S11307F0DF91CF911F910F91FF90EF90DF900895BB
S11308001F93CF93DF93EC01162F80E58CBD1DBCA5
S113081060E0CE010E9474021EBD00000DB407FE0C
S1130820FDCF1EB561E0CE010E947402812FDF91DD
S1130830CF911F91089562EE0E940004089561EE25
S11308400E94000408956FEF0E9400040895FC01C3
S11308507183608353834283168280E28783108688
S113086085E0868785E090E0A0E0B0E0848B958BFE
S1130870A68BB78B118608956D3710F4462F01C0EF
S11308804DE765E00E948A030895CF93DF93EC015E
S113089060E00E94320381FD0AC0482F426060E09C
S11308A0CE010E948A0380E197E20197F1F7DF917C
S11308B0CF9108950F931F93CF93DF93EC018B0196
S11308C067E10E94320380FD0EC00115110569F035
S11308D0CE010E94230490E0959587958770F801D6
S11308E0808381E003C080E001C081E0DF91CF918B
S11308F01F910F910895CF93DF93EC010E94B003F1
S113090040E767E0CE010E948A03DF91CF9108950A
S1130910EF92FF920F931F93CF93DF938C01C62F17
S11309207A01611108C0FC01468550E0B7010996BF
S11309300E947E0805C0673008F034C0623060F45D
S1130940EC2FF0E0EB5CFE4F6491F8012685A701E3
S1130950C8010E94550308C0E62FF0E0EB5CFE4F8F
S1130960649121E00E945503D0E0FE01E15DFE4F59
S11309706491F8014781C8010E948A0362E0C801BA
S11309800E943203FE01E55CFE4FE49141E050E039
S113099002C0440F551FEA95E2F7482B62E0C801F4
S11309A00E948A03DF91CF911F910F91FF90EF90E6
S11309B008950F931F93CF938C01C62F62E00E947A
S11309C03203EC2FF0E0E55CFE4FE49121E030E0EF
S11309D002C0220F331FEA95E2F72095422F4823E5
S11309E062E0C8010E948A03CF911F910F9108957C
S11309F0CF93DF93EC0160E00E943203482F416003
S1130A0060E0CE010E948A0340E767E0CE010E94C5
S1130A108A0361E0CE010E9423038985882349F07B
S1130A202E85AE01475F5F4F6AE0CE010E945503F9
S1130A3004C060E0CE010E94D9046DE1CE010E94A1
S1130A40320381FF03C0CE010E941F04DF91CF91C6
S1130A5008951F93CF93DF93EC0110E51CBD1DBCDB
S1130A6060E00E9474021EBD00000DB407FEFDCFBD
S1130A708EB583E78EBD00000DB407FEFDCF8EB5A5
S1130A8061E0CE010E947402DF91CF911F9108951D
S1130A900F931F93CF938C01C62F66E00E943203FD
S1130AA0887FC43018F4CC0FCF5F01C0C7E04C2F4F
S1130AB0482B66E0C8010E948A03CF911F910F91D1
S1130AC0089566E00E9432038670869508950F9318
S1130AD01F93CF93DF93EC01062F66E00E9432034D
S1130AE0182F177D023051F410628BE990E0A0E0DA
S1130AF0B0E0888B998BAA8BBB8B14C0013049F072
S1130B0085E590E0A0E0B0E0888B998BAA8BBB8B45
S1130B1009C0186081E490E0A0E0B0E0888B998B74
S1130B20AA8BBB8B412F66E0CE010E948A0366E04C
S1130B30CE010E94320391E0181390E0892FDF91D7
S1130B40CF911F910F9108951F93CF93DF93EC01E1
S1130B50888199812A813B818217930721F061E082
S1130B6070E00E94780161E070E08A819B810E94BC
S1130B7078010E94190660E0CE010E94230361E01F
S1130B80CE010E94740280E197E20197F1F74CE0F4
S1130B9060E0CE010E948A034FE564E0CE010E942A
S1130BA08A0362E0CE010E946705882311F081E088
S1130BB08E8366E0CE010E943203182F8E3011F42A
S1130BC081E08E8360E0CE010E946705CE010E9421
S1130BD0290540E06DE1CE010E948A0340E06CE10A
S1130BE0CE010E948A03188640E767E0CE010E9486
S1130BF08A036CE4CE010E943C04CE010E941B04D3
S1130C00CE010E941F04CE010E94450460E0CE0183
S1130C100E943203482F4E7F60E0CE010E948A0377
S1130C20115081E01E3F08F080E0DF91CF911F91C9
S1130C30089561E070E08AE090E00E9478018CB54C
S1130C4080618CBD8CB580648CBD61E070E08DE00A
S1130C5090E00E94780161E070E08BE090E00E94F7
S1130C60780108955058BB27AA270E944A060C947D
S1130C70BD070E94AF0738F00E94B60720F039F490
S1130C809F3F19F426F40C94AC070EF4E095E7FBAF
S1130C900C94A607E92F0E94CE0758F3BA176207EF
S1130CA073078407950720F079F4A6F50C94F007F0
S1130CB00EF4E0950B2EBA2FA02D0B01B901900173
S1130CC00C01CA01A0011124FF27591B99F0593FB7
S1130CD050F4503E68F11A16F040A22F232F342FFF
S1130CE04427585FF3CF469537952795A795F0404D
S1130CF05395C9F77EF41F16BA0B620B730B840B62
S1130D00BAF09150A1F0FF0FBB1F661F771F881F19
S1130D10C2F70EC0BA0F621F731F841F48F4879571
S1130D2077956795B795F7959E3F08F0B0CF939563
S1130D30880F08F09927EE0F9795879508950E94DC
S1130D40820708F481E008950E94B8060C94BD0758
S1130D500E94B60758F00E94AF0740F029F45F3FA5
S1130D6029F00C94A60751110C94F1070C94AC07CC
S1130D700E94CE0768F39923B1F3552391F3951B91
S1130D80550BBB27AA2762177307840738F09F5FA8
S1130D905F4F220F331F441FAA1FA9F335D00E2E15
S1130DA03AF0E0E832D091505040E695001CCAF782
S1130DB02BD0FE2F29D0660F771F881FBB1F261745
S1130DC037074807AB07B0E809F0BB0B802DBF011C
S1130DD0FF2793585F4F3AF09E3F510578F00C94EB
S1130DE0A6070C94F1075F3FE4F3983ED4F386958D
S1130DF077956795B795F7959F5FC9F7880F911D0C
S1130E009695879597F90895E1E0660F771F881FF7
S1130E10BB1F621773078407BA0720F0621B730BAA
S1130E20840BBA0BEE1F88F7E09508950E94D6074D
S1130E3088F09F5798F0B92F9927B751B0F0E1F097
S1130E40660F771F881F991F1AF0BA95C9F714C047
S1130E50B13091F00E94F007B1E008950C94F007CE
S1130E60672F782F8827B85F39F0B93FCCF3869580
S1130E7077956795B395D9F73EF4909580957095DD
S1130E8061957F4F8F4F9F4F0895E89409C097FB5A
S1130E903EF490958095709561957F4F8F4F9F4F4D
S1130EA09923A9F0F92F96E9BB279395F695879591
S1130EB077956795B795F111F8CFFAF4BB0F11F454
S1130EC060FF1BC06F5F7F4F8F4F9F4F16C08823FB
S1130ED011F096E911C0772321F09EE8872F762F31
S1130EE005C0662371F096E8862F70E060E02AF072
S1130EF09A95660F771F881FDAF7880F969587955E
S1130F0097F90895990F0008550FAA0BE0E8FEEF32
S1130F1016161706E807F907C0F012161306E407B9
S1130F20F50798F0621B730B840B950B39F40A26B2
S1130F3061F0232B242B252B21F408950A2609F490
S1130F40A140A6958FEF811D811D089597F99F6794
S1130F5080E870E060E008959FEF80EC089500243D
S1130F600A941616170618060906089500240A940A
S1130F7012161306140605060895092E0394000C90
S1130F8011F4882352F0BB0F40F4BF2B11F460FF1F
S1130F9004C06F5F7F4F8F4F9F4F089557FD905848
S1130FA0440F551F59F05F3F71F04795880F97FB29
S1130FB0991F61F09F3F79F08795089512161306E3
S1130FC01406551FF2CF4695F1DF08C01616170612
S1130FD01806991FF1CF8695710561050894089547
S1130FE0E894BB2766277727CB0197F908950E94D9
S1130FF0820708F48FEF08950E940F080C94BD0730
S11310000E94AF0738F00E94B60720F0952311F034
S11310100C94A6070C94AC0711240C94F1070E94BD
S1131020CE0770F3959FC1F3950F50E0551F629F53
S1131030F001729FBB27F00DB11D639FAA27F00D2D
S1131040B11DAA1F649F6627B00DA11D661F829F54
S11310502227B00DA11D621F739FB00DA11D621F39
S1131060839FA00D611D221F749F3327A00D611D56
S1131070231F849F600D211D822F762F6A2F112438
S11310809F5750409AF0F1F088234AF0EE0FFF1F6B
S1131090BB1F661F771F881F91505040A9F79E3FC2
S11310A0510580F00C94A6070C94F1075F3FE4F31C
S11310B0983ED4F3869577956795B795F795E79518
S11310C09F5FC1F7FE2B880F911D9695879597F921
S11310D00895A29FB001B39FC001A39F700D811D0D
S11310E01124911DB29F700D811D1124911D08952D
S11310F0EE0FFF1F0590F491E02D0994FB01DC0134
S113110002C001900D9241505040D8F70895F894D0
S1051110FFCF0B
S1131112015061636B657420636F756E743A00509D
S1131122697065204E756D6265723A00506F77651D
S113113272204C6576656C3A0030303030310011E3
S113114212131415160A0B0C0D0E0F0001020304E0
S1051152050092
S9030000FC
