S0120000524672656365697665722E7372656325
S11300000C9435000C945D000C945D000C945D0020
S11300100C945D000C945D000C945D000C945D00E8
S11300200C945D000C945D000C945D000C945D00D8
S11300300C945D000C945D000C94DE010C945D0046
S11300400C945D000C945D000C945D000C945D00B8
S11300500C945D000C945D000C945D000C945D00A8
S11300600C945D000C945D00520211241FBECFEF6E
S1130070D8E0DEBFCDBF11E0A0E0B1E0E8E8F6E1F2
S113008002C005900D92AC35B107D9F721E0ACE57B
S1130090B1E001C01D92AE37B207E1F710E0C5E34D
S11300A0D0E004C02197FE010E945508C433D10753
S11300B0C9F70E94F5010C94420B0C940000E1EC8A
S11300C0F0E010821092C000A2ECB0E08C918E603F
S11300D08C9383E38093C4001092C500808188616F
S11300E08083089590E49093C000E0ECF0E0908168
S11300F095FFFDCF8093C600E0ECF0E0808186FFA1
S1130100FDCF08950F931F93CF938C01FC01808141
S1130110882351F0C0E00E947200CF5FF801EC0F19
S1130120F11D80818111F7CF8AE00E947200CF9186
S11301301F910F9108950F931F93CF93FC0180811A
S1130140882359F08F01C0E00E947200CF5FF8014C
S1130150EC0FF11D80818111F7CFCF911F910F9189
S113016008950F931F93CF93DF938C019C013295D5
S113017022952F7023273F702327A7E4B3E00E9422
S11301804608969587959695879596958795805D6B
S1130190803311F00E9472009801329522952F70DD
S11301A023273F702327A7E4B3E00E944608EC010D
S11301B0D695C795D695C795D695C79520E137E2CC
S11301C0C29FC001C39F900DD29F900D1124E801DE
S11301D0C81BD90B9E0136952795369527953695DC
S11301E02795A5ECB0E20E944608929582958F70FF
S11301F089279F708927805D803311F00E947200E7
S11302009E01369527953695279536952795A5EC25
S1130210B0E20E9446088C01129502950F700127E6
S11302201F70012728EE33E0029FC001039F900D49
S1130230129F900D11248E01081B190B98013695FD
S1130240279536952795ABE7B4E10E944608969525
S11302508795805D803311F00E9472009801369575
S1130260279536952795ABE7B4E10E944608EC0143
S1130270D695C79524E62C9FC0012D9F900D11247F
S1130280E801C81BD90B9E01ADECBCEC0E944608EA
S1130290969587959695879596958795805D8033F5
S11302A011F00E9472009E01ADECBCEC0E94460865
S11302B09695879596958795969587959C01220F97
S11302C0331F880F991F880F991F880F991F820F5A
S11302D0931F9E01281B390BC901805D0E94720087
S11302E08AE00E947200DF91CF911F910F910895CF
S11302F061307105F1F48830910570F044B10897CC
S113030021E030E0B90102C0660F771F8A95E2F759
S1130310CB01842B84B908954AB121E030E0B901BE
S113032002C0660F771F8A95E2F7CB01842B8AB946
S11303300895089718F084B184B908958AB18AB9E8
S113034008956623D9F08830910558F0089721E084
S113035030E0A90102C0440F551F8A95E2F745B960
S113036008954BB121E030E0B90102C0660F771F58
S11303708A95E2F7CB01842B8BB9089588309105D7
S113038078F045B1089721E030E0B90102C0660F6A
S1130390771F8A95E2F7CB018095842385B9089568
S11303A04BB121E030E0B90102C0660F771F8A9596
S11303B0E2F7CB01809584238BB908951F920F92A5
S11303C00FB60F9211248F939F9380915C019091AB
S11303D05D01019690935D0180935C019F918F91E3
S11303E00F900FBE0F901F901895CF93DF93CDB74A
S11303F0DEB7A0970FB6F894DEBF0FBECDBF60E89E
S113040075E280E090E00E945F0080E691E00E9447
S11304107B054BE151E060E080E691E00E947904C5
S113042080E691E00E94E9040F2EFEE1FF2EF02DFC
S11304308E010D5F1F4F80E691E00E9467048823C0
S1130440D1F31A821982F8018F2D11928A95E9F756
S113045040E2BE016F5F7F4F80E691E00E946C0432
S1130460CE0101960E94820080E091E00E949B00F0
S113047080915F0190E00E94B10080915F018F5FE5
S113048080935F0180E691E00E94380580935E01CD
S11304908EE091E00E949B0080915E0190E00E94BA
S11304A0B100C9CF4AE050E069E070E080E691E035
S11304B00E94130408954F925F926F927F928F92DD
S11304C09F92AF92BF92CF92DF92EF92FF921F93CF
S11304D0CF93DF93EC018CB58F7D8CBD8CB5837F7E
S11304E08CBD8CB58C7F8CBD8DB581608DBD8A81B2
S11304F09B810E94A1016C897D898E899F890E94BC
S113050022076B017C012BEA3AEA4AE250E40E949A
S1130510D9074B015C0120E030E040E85FE30E9432
S11305207C0688230CF46EC0A7019601C701B601AE
S11305300E9410062B013C0120E03FEF4FE757E4F7
S11305400E94D40718160CF045C020E030E04AE7BA
S113055054E4C701B6010E9481064B015C0120E00E
S113056030E04AEF54E40E94D9076B017C0120E09B
S113057030E040E85FE30E947C0688232CF120E011
S11305803FEF4FE757E4C701B6010E94D40718169E
S1130590B4F420E030E040E251E4C501B4010E942B
S11305A0D9070E94F3066115710569F128EC30E062
S11305B0C9010197F1F761507109D1F724C0C7014E
S11305C0B6010E94F30602C061E070E0CB0101971E
S11305D0F1F719C020E030E04FE753E4C501B4015E
S11305E00E94D407181644F4C301B2010E94F30612
S11305F0CB010197F1F709C0C501B4010E94F306CC
S1130600162F01C011E01A95F1F7DF91CF911F91D8
S1130610FF90EF90DF90CF90BF90AF909F908F901E
S11306207F906F905F904F900895FC01808191813D
S1130630228133818217930711F00E94A10108954A
S11306400F931F93CF938C01C62F60E00E945B022F
S1130650CF71CEBD00000DB407FEFDCF8EB58FEF78
S11306608EBD00000DB407FEFDCFCEB561E0C8011C
S11306700E945B028C2FCF911F910F910895EF92EE
S1130680FF920F931F93CF93DF938C01C62FE42E19
S1130690F52ED22F60E00E945B02CF71C062CEBD06
S11306A000000DB407FEFDCFCEB58FEF8D0FDD2317
S11306B059F0EE2DFF2D91919EBD00000DB407FE63
S11306C0FDCF9EB58150B8F761E0C8010E945B027E
S11306D08C2FDF91CF911F910F91FF90EF90089590
S11306E00F931F93CF93DF938C01C62FD42F1F92A8
S11306F04F931F926F9381E291E09F938F930E9497
S1130700640860E0C8010E945B02CF71C062CEBD84
S113071000000F900F900F900F900F900F900DB45A
S113072007FEFDCFCEB5DEBD00000DB407FEFDCF44
S11307308EB561E0C8010E945B028C2FDF91CF91DE
S11307401F910F910895DF92EF92FF920F931F93E1
S1130750CF93DF93EC01D62EE72E8F81082F481715
S113076008F4042F9885911103C0182F101B01C0A1
S113077010E060E0CE010E945B0281E68EBD0000C5
S11307800DB407FEFDCFFEB48FEF800F011105C03D
S11307908FEF810F11110EC016C0ED2DFE2D2FEF1E
S11307A02EBD00000DB407FEFDCF9EB59193815080
S11307B0B8F7EECF9FEF9EBD00000DB407FEFDCF4E
S11307C02EB58150C0F761E0CE010E945B028F2DEF
S11307D0DF91CF911F910F91FF90EF90DF900895DB
S11307E01F93CF93DF93EC01162F60E00E945B020E
S11307F01EBD00000DB407FEFDCF1EB561E0CE01A5
S11308000E945B02812FDF91CF911F91089562EEC8
S11308100E94F003089561EE0E94F00308956FEFC3
S11308200E94F0030895FC01718360835383428323
S1130830168280E28783108685E0868785E090E0D3
S1130840A0E0B0E0848B958BA68BB78B11860895BE
S11308506D3710F4462F01C04DE765E00E94700328
S11308600895CF93DF93EC0160E00E94200381FDA3
S11308700AC0482F426060E0CE010E94700380E10C
S113088097E20197F1F7DF91CF9108950F931F93AA
S1130890CF93DF93EC018B0167E10E94200380FD7D
S11308A00EC00115110569F0CE010E940F0490E0FD
S11308B0959587958770F801808381E003C080E077
S11308C001C081E0DF91CF911F910F91089560E005
S11308D070E00E9446040895CF93DF93EC010E94D8
S11308E0A30340E767E0CE010E947003DF91CF913C
S11308F00895EF92FF920F931F93CF93DF938C0190
S1130900C62F7A01611108C0FC01468550E0B70189
S113091009960E945B0805C0673008F034C0623055
S113092060F4EC2FF0E0E05BFE4F6491F801268563
S1130930A701C8010E943F0308C0E62FF0E0E05B76
S1130940FE4F649121E00E943F03D0E0FE01E65B8C
S1130950FE4F6491F8014781C8010E94700362E070
S1130960C8010E942003FE01EA5AFE4FE49141E0CF
S113097050E002C0440F551FEA95E2F7482B62E0AD
S1130980C8010E947003DF91CF911F910F91FF90D6
S1130990EF9008950F931F93CF938C01C62F62E0BD
S11309A00E942003EC2FF0E0EA5AFE4FE49121E08C
S11309B030E002C0220F331FEA95E2F72095422F60
S11309C0482362E0C8010E947003CF911F910F91E8
S11309D00895CF93DF93EC010E94310460E0CE01CF
S11309E00E942003482F416060E0CE010E94700302
S11309F040E767E0CE010E94700361E0CE010E94EF
S1130A0015038985882349F02E85AE01475F5F4F22
S1130A106AE0CE010E943F0304C060E0CE010E9460
S1130A20CA046DE1CE010E94200381FF03C0CE0100
S1130A300E940B04DF91CF910895CF93DF93EC01D3
S1130A4060E00E945B0280E58EBD00000DB407FEED
S1130A50FDCF8EB583E78EBD00000DB407FEFDCF3C
S1130A608EB561E0CE010E945B02DF91CF910895C3
S1130A7066E00E9420038670869508950F931F9365
S1130A80CF93DF93EC01062F66E00E942003182F1A
S1130A90177D023051F410628BE990E0A0E0B0E0E1
S1130AA0888B998BAA8BBB8B14C0013049F085E5E8
S1130AB090E0A0E0B0E0888B998BAA8BBB8B09C037
S1130AC0186081E490E0A0E0B0E0888B998BAA8B59
S1130AD0BB8B412F66E0CE010E94700366E0CE011D
S1130AE00E94200391E0181390E0892FDF91CF91A9
S1130AF01F910F9108951F93CF93DF93EC01888189
S1130B0099812A813B818217930779F061E070E033
S1130B100E9478018A819B812881398128173907AD
S1130B2021F061E070E00E9478010E94F50560E028
S1130B30CE010E94150361E0CE010E945B0280E1B8
S1130B4097E20197F1F74CE060E0CE010E94700358
S1130B504FE564E0CE010E94700362E0CE010E9482
S1130B603E05882311F081E08E8366E0CE010E9469
S1130B702003182F8E3011F481E08E8360E0CE01C3
S1130B800E943E05CE010E941D0540E06DE1CE01AC
S1130B900E94700340E06CE1CE010E94700318864D
S1130BA040E767E0CE010E9470036CE4CE010E942E
S1130BB02804CE010E940704CE010E940B04CE013A
S1130BC00E94310460E0CE010E942003482F4E7F32
S1130BD060E0CE010E947003115081E01E3F08F0D6
S1130BE080E0DF91CF911F910895F89461E070E067
S1130BF08AE090E00E9478018CB580618CBD8CB550
S1130C0080648CBD61E070E08DE090E00E9478012A
S1130C1061E070E08BE090E00E9478010895505804
S1130C20BB27AA270E9427060C949A070E948C07C8
S1130C3038F00E94930720F039F49F3F19F426F40A
S1130C400C9489070EF4E095E7FB0C948307E92FD5
S1130C500E94AB0758F3BA17620773078407950716
S1130C6020F079F4A6F50C94CD070EF4E0950B2E44
S1130C70BA2FA02D0B01B90190010C01CA01A001EA
S1130C801124FF27591B99F0593F50F4503E68F145
S1130C901A16F040A22F232F342F4427585FF3CF86
S1130CA0469537952795A795F0405395C9F77EF457
S1130CB01F16BA0B620B730B840BBAF09150A1F0A0
S1130CC0FF0FBB1F661F771F881FC2F70EC0BA0F26
S1130CD0621F731F841F48F4879577956795B795AE
S1130CE0F7959E3F08F0B0CF9395880F08F09927A9
S1130CF0EE0F9795879508950E945F0708F481E0A9
S1130D0008950E9495060C949A070E94930758F040
S1130D100E948C0740F029F45F3F29F00C9483076C
S1130D2051110C94CE070C9489070E94AB0768F309
S1130D309923B1F3552391F3951B550BBB27AA2790
S1130D4062177307840738F09F5F5F4F220F331FCA
S1130D50441FAA1FA9F335D00E2E3AF0E0E832D092
S1130D6091505040E695001CCAF72BD0FE2F29D095
S1130D70660F771F881FBB1F261737074807AB0767
S1130D80B0E809F0BB0B802DBF01FF2793585F4FDC
S1130D903AF09E3F510578F00C9483070C94CE07EB
S1130DA05F3FE4F3983ED4F3869577956795B795BE
S1130DB0F7959F5FC9F7880F911D9695879597F9C9
S1130DC00895E1E0660F771F881FBB1F6217730742
S1130DD08407BA0720F0621B730B840BBA0BEE1F57
S1130DE088F7E09508950E94B30788F09F5798F01C
S1130DF0B92F9927B751B0F0E1F0660F771F881F1C
S1130E00991F1AF0BA95C9F714C0B13091F00E9435
S1130E10CD07B1E008950C94CD07672F782F88276C
S1130E20B85F39F0B93FCCF3869577956795B3955C
S1130E30D9F73EF490958095709561957F4F8F4FCB
S1130E409F4F0895E89409C097FB3EF490958095D0
S1130E50709561957F4F8F4F9F4F9923A9F0F92F7C
S1130E6096E9BB279395F695879577956795B795FA
S1130E70F111F8CFFAF4BB0F11F460FF1BC06F5FE0
S1130E807F4F8F4F9F4F16C0882311F096E911C0F2
S1130E90772321F09EE8872F762F05C0662371F013
S1130EA096E8862F70E060E02AF09A95660F771F27
S1130EB0881FDAF7880F9695879597F90895990F03
S1130EC00008550FAA0BE0E8FEEF16161706E80710
S1130ED0F907C0F012161306E407F50798F0621B31
S1130EE0730B840B950B39F40A2661F0232B242B06
S1130EF0252B21F408950A2609F4A140A6958FEF25
S1130F00811D811D089597F99F6780E870E060E076
S1130F1008959FEF80EC089500240A94161617068E
S1130F2018060906089500240A94121613061406D6
S1130F3005060895092E0394000C11F4882352F039
S1130F40BB0F40F4BF2B11F460FF04C06F5F7F4FF1
S1130F508F4F9F4F089557FD9058440F551F59F0D8
S1130F605F3F71F04795880F97FB991F61F09F3F92
S1130F7079F087950895121613061406551FF2CFBB
S1130F804695F1DF08C0161617061806991FF1CF0B
S1130F9086957105610508940895E894BB27662732
S1130FA07727CB0197F908950E945F0708F48FEF24
S1130FB008950E94EC070C949A070E948C0738F05D
S1130FC00E94930720F0952311F00C9483070C944E
S1130FD0890711240C94CE070E94AB0770F3959FE8
S1130FE0C1F3950F50E0551F629FF001729FBB271C
S1130FF0F00DB11D639FAA27F00DB11DAA1F649FB8
S11310006627B00DA11D661F829F2227B00DA11D6A
S1131010621F739FB00DA11D621F839FA00D611DF0
S1131020221F749F3327A00D611D231F849F600D11
S1131030211D822F762F6A2F11249F5750409AF03A
S1131040F1F088234AF0EE0FFF1FBB1F661F771FC6
S1131050881F91505040A9F79E3F510580F00C9491
S113106083070C94CE075F3FE4F3983ED4F3869550
S113107077956795B795F795E7959F5FC1F7FE2B31
S1131080880F911D9695879597F90895A29FB001B1
S1131090B39FC001A39F700D811D1124911DB29FA8
S11310A0700D811D1124911D0895EE0FFF1F0590F1
S11310B0F491E02D0994FB01DC0102C001900D9232
S11310C041505040D8F70895A0E0B0E0EAE6F8E0D7
S11310D00C941B0BAE014B5F5F4FFA016191719150
S11310E0AF0180917A0190917B010E947A08E2E03D
S11310F00C94370BABE0B0E0E0E8F8E00C940B0B99
S11311006C017B018A01FC0117821682838181FFB5
S1131110CCC1CE0101963C01F6019381F70193FD08
S1131120859193FF81917F01882309F4BAC18532A7
S113113039F493FD859193FF81917F01853229F4E0
S1131140B60190E00E94710AE7CF912C212C312C3A
S1131150FFE1F315D8F08B3279F038F4803279F06E
S11311608332A1F4232D20611DC08D3261F08033C0
S113117069F4232D216016C0832D8260382EE32D5F
S1131180E4603E2E2AC0F32DF8601DC037FC2DC04C
S113119020ED280F2A3040F08E32B9F436FC81C19C
S11311A0232D2064322E19C036FE06C08AE0989E94
S11311B0200D1124922E11C0EAE02E9E200D112440
S11311C0222EF32DF0623F2E08C08C3621F4832D9D
S11311D08068382E02C0883641F4F70193FD85916A
S11311E093FF81917F018111B3CF982F9F7D9554F7
S11311F0933028F40C5F1F4F9FE399830DC083360F
S113120031F0833771F0833509F059C021C0F801FA
S1131210808189830E5F1F4F88248394912C53010E
S113122013C02801F2E04F0E511CF801A080B180D8
S113123036FE03C0692D70E002C06FEF7FEFC50179
S11312400E94660A4C018201F32DFF773F2E16C0DF
S1131250280122E0420E511CF801A080B18036FE24
S113126003C0692D70E002C06FEF7FEFC5010E94DB
S11312705B0A4C01F32DF0683F2E820133FC1BC046
S1131280822D90E088169906B0F4B60180E290E0D1
S11312900E94710A2A94F4CFF50137FC859137FE38
S11312A081915F01B60190E00E94710A21102A9495
S11312B021E0821A91088114910471F7E8C0843600
S11312C011F0893641F5F80137FE07C0608171815C
S11312D0828193810C5F1F4F08C060817181072E4A
S11312E0000C880B990B0E5F1F4FF32DFF763F2EDA
S11312F097FF09C090958095709561957F4F8F4FAA
S11313009F4FF0683F2E2AE030E0A3010E94AD0A0F
S1131310882E861845C0853731F4232D2F7EB22EB2
S11313202AE030E025C0932D997FB92E8F36C1F085
S113133018F4883579F0B5C0803719F0883721F072
S1131340B0C0E92FE061BE2EB4FE0DC0FB2DF460E9
S1131350BF2E09C034FE0AC0292F2660B22E06C053
S113136028E030E005C020E130E002C020E132E0B6
S1131370F801B7FE07C060817181828193810C5F9F
S11313801F4F06C06081718180E090E00E5F1F4FA7
S1131390A3010E94AD0A882E8618FB2DFF773F2EED
S11313A036FE0DC0232D2E7FA22E891458F434FE50
S11313B00BC032FC09C0832D8E7EA82E05C0B82C2C
S11313C0A32C03C0B82C01C0B92CA4FE0FC0FE018D
S11313D0E80DF11D8081803321F49A2D997EA92E88
S11313E009C0A2FE06C0B394B39404C08A2D8678C3
S11313F009F0B394A3FC11C0A0FE06C0B21488F493
S1131400280C922C9B180EC0B21460F4B60180E232
S113141090E00E94710AB394F7CFB21418F42B1819
S113142002C0982C212CA4FE10C0B60180E390E0E9
S11314300E94710AA2FE17C0A1FC03C088E790E0D5
S113144002C088E590E0B6010CC08A2D867859F078
S1131450A1FE02C08BE201C080E2A7FC8DE2B601CE
S113146090E00E94710A891438F4B60180E390E098
S11314700E94710A9A94F7CF8A94F301E80DF11D42
S11314808081B60190E00E94710A8110F5CF22207C
S113149009F442CEB60180E290E00E94710A2A94D7
S11314A0F6CFF6018681978102C08FEF9FEF2B96CE
S11314B0E2E10C94270BFC0105906150704001108F
S11314C0D8F7809590958E0F9F1F0895FC01615069
S11314D0704001900110D8F7809590958E0F9F1F52
S11314E008950F931F93CF93DF93FB01238121FD75
S11314F003C08FEF9FEF2CC022FF16C04681578197
S1131500248135814217530744F4A081B1819D01A0
S11315102F5F3F4F318320838C93268137812F5F48
S11315203F4F3783268314C08B01EC01FB010084F9
S1131530F185E02D0995892BE1F6D80116968D9158
S11315409C911797019617969C938E931697CE01AC
S1131550DF91CF911F910F910895FA01AA272830A6
S113156051F1203181F1E8946F936E7F6E5F7F4F6C
S11315708F4F9F4FAF4FB1E03ED0B4E03CD0670FE8
S1131580781F891F9A1FA11D680F791F8A1F911D3B
S1131590A11D6A0F711D811D911DA11D20D009F48B
S11315A068943F912AE0269F11243019305D3193CD
S11315B0DEF6CF010895462F4770405D4193B3E0B6
S11315C00FD0C9F7F6CF462F4F70405D4A3318F05D
S11315D0495D31FD4052419302D0A9F7EACFB4E00E
S11315E0A6959795879577956795BA95C9F70097C6
S11315F06105710508959B01AC010A2E0694579567
S1131600479537952795BA95C9F7620F731F841FBD
S1131610951FA01D08952F923F924F925F926F9253
S11316207F928F929F92AF92BF92CF92DF92EF926E
S1131630FF920F931F93CF93DF93CDB7DEB7CA1BEF
S1131640DB0B0FB6F894DEBF0FBECDBF09942A881A
S1131650398848885F846E847D848C849B84AA84C2
S1131660B984C884DF80EE80FD800C811B81AA814F
S1131670B981CE0FD11D0FB6F894DEBF0FBECDBF1A
S10B1680ED010895F894FFCF79
S11316885061636B657420636F756E743A00506FB4
S1131698776572204C6576656C3A003030303031AD
S11316A80077726974655F72656769737465722817
S11316B8253032782C25303278290D0A00464541E8
S11316C8545552453D25690D0A0011121314151677
S10F16D80A0B0C0D0E0F000102030405A8
S9030000FC
