S0120000524672656365697665722E7372656325
S11300000C9435000C945D000C945D000C945D0020
S11300100C945D000C945D000C9424020C945D001F
S11300200C945D000C945D000C945D000C945D00D8
S11300300C945D000C945D000C940D020C945D0016
S11300400C945D000C945D000C945D000C945D00B8
S11300500C945D000C945D000C945D000C945D00A8
S11300600C945D000C945D009D0211241FBECFEF23
S1130070D8E0DEBFCDBF11E0A0E0B1E0E6EBF1E1F6
S113008002C005900D92AC31B107D9F721E0ACE183
S1130090B1E001C01D92A633B207E1F710E0C5E359
S11300A0D0E004C02197FE010E94CA08C433D107DE
S11300B0C9F70E942E020C94D9080C940000E1ECBC
S11300C0F0E010821092C000A2ECB0E08C918E603F
S11300D08C9383E38093C4001092C500808188616F
S11300E08083089590E49093C000E0ECF0E0908168
S11300F095FFFDCF8093C600E0ECF0E0808186FFA1
S1130100FDCF08950F931F93CF93FC018081882323
S113011059F08F01C0E00E947200CF5FF801EC0F2C
S1130120F11D80818111F7CFCF911F910F91089517
S11301300F931F93CF93DF938C019C0132952295EB
S11301402F7023273F702327A7E4B3E00E94BB0846
S1130150969587959695879596958795805D803336
S113016011F00E9472009801329522952F70232776
S11301703F702327A7E4B3E00E94BB08EC01D695A7
S1130180C795D695C795D695C79520E137E2C29F06
S1130190C001C39F900DD29F900D1124E801C81B8C
S11301A0D90B9E0136952795369527953695279533
S11301B0A5ECB0E20E94BB08929582958F708927C6
S11301C09F708927805D803311F00E9472009E0128
S11301D0369527953695279536952795A5ECB0E263
S11301E00E94BB088C01129502950F7001271F70A5
S11301F0012728EE33E0029FC001039F900D129F58
S1130200900D11248E01081B190B98013695279522
S113021036952795ABE7B4E10E94BB089695879580
S1130220805D803311F00E94720098013695279505
S113023036952795ABE7B4E10E94BB08EC01D6954F
S1130240C79524E62C9FC0012D9F900D1124E80131
S1130250C81BD90B9E01ADECBCEC0E94BB08969563
S113026087959695879596958795805D803311F04F
S11302700E9472009E01ADECBCEC0E94BB089695F6
S1130280879596958795969587959C01220F331FA0
S1130290880F991F880F991F880F991F820F931F2A
S11302A09E01281B390BC901805D0E9472008AE0FF
S11302B00E947200DF91CF911F910F910895CF9307
S11302C0DF93D82FC9E28C9FC12D1124C295CF7022
S11302D080E38C0F0E94720084E6C89FD019112419
S11302E0CDECDC9FC12D1124C695C695C69580E33F
S11302F08C0F0E947200CC0F8C2F880F880FC80FB0
S11303008D2F8C1B805D0E9472008AE00E94720017
S1130310DF91CF9108950F931F93CF938C01FC012C
S11303208081882351F0C0E00E945F01CF5FF80113
S1130330EC0FF11D80818111F7CF8AE00E947200D9
S1130340CF911F910F91089561307105F1F48830B8
S1130350910570F044B1089721E030E0B90102C082
S1130360660F771F8A95E2F7CB01842B84B9089531
S11303704AB121E030E0B90102C0660F771F8A95C7
S1130380E2F7CB01842B8AB90895089718F084B159
S113039084B908958AB18AB908956623F1F0883042
S11303A0910570F045B1089721E030E0B90102C031
S11303B0660F771F8A95E2F7CB01842B85B90895E0
S11303C04BB121E030E0B90102C0660F771F8A9576
S11303D0E2F7CB01842B8BB908958830910578F02E
S11303E045B1089721E030E0B90102C0660F771FDC
S11303F08A95E2F7CB018095842385B908954BB1A2
S113040021E030E0B90102C0660F771F8A95E2F758
S1130410CB01809584238BB908951F920F920FB658
S11304200F9211248F939F9380911C0190911D0131
S1130430019690931D0180931C019F918F910F90C1
S11304400FBE0F901F9018951F920F920FB60F9228
S113045011240F900FBE0F901F901895CF93DF9328
S113046000D000D000D0CDB7DEB760E875E280E000
S113047090E00E945F008EE191E00E94F60562E048
S11304808EE191E00E94B90563E08EE191E00E9463
S1130490A0050F2EF2EEEF2EF02D0F2EF0EFFF2E13
S11304A0F02D00EF10EF20EF30E040E050E061E08D
S11304B08EE191E00E94BA040F2EF3EEEF2EF02DA0
S11304C020EF30E040E050E062E08EE191E00E94F5
S11304D0BA048EE191E00E9450050F2EF3E0FF2E46
S11304E0F02D8E010D5F1F4F1E821A821982F801B2
S11304F08F2D11928A95E9F77894BE016A5F7F4F38
S11305008EE191E00E948C04882371F345E0BE01E2
S11305106F5F7F4F8EE191E00E94AD048E818C83EA
S113052080E091E00E9482008E8190E00E94980019
S1130530CE0101960E948B01E0CF4AE050E069E0D1
S113054070E08EE191E00E94590408954F925F9209
S11305506F927F928F929F92AF92BF92CF92DF92CF
S1130560EF92FF921F93CF93DF93EC018A819B81DB
S11305700E94CD016C897D898E899F890E9497078D
S11305806B017C012BEA3AEA4AE250E40E944E08ED
S11305904B015C0120E030E040E85FE30E94F1069B
S11305A088230CF46EC0A7019601C701B6010E940E
S11305B085062B013C0120E03FEF4FE757E40E9402
S11305C0490818160CF045C020E030E04AE754E42E
S11305D0C701B6010E94F6064B015C0120E030E041
S11305E04AEF54E40E944E086B017C0120E030E0A5
S11305F040E85FE30E94F10688232CF120E03FEFFE
S11306004FE757E4C701B6010E9449081816B4F42D
S113061020E030E040E251E4C501B4010E944E08FC
S11306200E9468076115710569F128EC30E0C90181
S11306300197F1F761507109D1F724C0C701B601E0
S11306400E94680702C061E070E0CB010197F1F7F6
S113065019C020E030E04FE753E4C501B4010E9423
S11306604908181644F4C301B2010E946807CB017B
S11306700197F1F70AC0C501B4010E946807162F5B
S113068001C011E0612F6A95F1F7DF91CF911F91BD
S1130690FF90EF90DF90CF90BF90AF909F908F909E
S11306A07F906F905F904F900895FC0180819181BD
S11306B0228133818217930711F00E94CD0184E0D7
S11306C091E00197F1F708950F931F93CF938C0155
S11306D0C62F80E58CBD1DBC60E0C8010E94A60247
S11306E0CF71CEBD00000DB407FEFDCF8EB58FEFE8
S11306F08EBD00000DB407FEFDCFCEB561E0C8018C
S11307000E94A6028C2FCF911F910F910895EF9212
S1130710FF920F931F93CF93DF938C01C62FE42E88
S1130720F52ED22F80E58CBD1DBC60E0C8010E946F
S1130730A602CF71C062CEBD00000DB407FEFDCF8E
S1130740CEB58FEF8D0FDD2359F0EE2DFF2D919156
S11307509EBD00000DB407FEFDCF9EB58150B8F7D5
S113076061E0C8010E94A6028C2FDF91CF911F91F6
S11307700F91FF90EF9008950F931F93CF93DF9302
S11307808C01C62FD42F80E58CBD1DBC60E0C80150
S11307900E94A602CF71C062CEBD00000DB407FE58
S11307A0FDCFCEB5DEBD00000DB407FEFDCF8EB586
S11307B061E0C8010E94A6028C2FDF91CF911F91A6
S11307C00F910895DF92EF92FF920F931F93CF93AF
S11307D0DF93EC01D62EE72E8F81082F481708F4FB
S11307E0042F9885911103C0182F101B01C010E02D
S11307F080E58CBD1DBC60E0CE010E94A60281E6AE
S11308008EBD00000DB407FEFDCFFEB48FEF800F48
S1130810011105C08FEF810F11110EC016C0ED2D0F
S1130820FE2D2FEF2EBD00000DB407FEFDCF9EB5AB
S113083091938150B8F7EECF9FEF9EBD00000DB4A9
S113084007FEFDCF2EB58150C0F761E0CE010E94B6
S1130850A6028F2DDF91CF911F910F91FF90EF9002
S1130860DF9008951F93CF93DF93EC01162F80E55B
S11308708CBD1DBC60E0CE010E94A6021EBD00001E
S11308800DB407FEFDCF1EB561E0CE010E94A602A5
S1130890812FDF91CF911F91089562EE0E9432045F
S11308A0089561EE0E94320408956FEF0E943204AD
S11308B00895FC017183608353834283168280E22E
S11308C08783108685E0868785E090E0A0E0B0E02D
S11308D0848B958BA68BB78B118608956D3710F496
S11308E0462F01C04DE765E00E94BC030895CF93F5
S11308F0DF93EC0160E00E94640381FD0AC0482F8D
S1130900426060E0CE010E94BC0380E197E201975F
S1130910F1F7DF91CF9108950F931F93CF93DF9356
S1130920EC018B0167E10E94640380FD0EC0011598
S1130930110569F0CE010E94550490E095958795C4
S11309408770F801808381E003C080E001C081E00A
S1130950DF91CF911F910F910895CF93DF93EC0115
S11309600E94E20340E767E0CE010E94BC03DF91EE
S1130970CF910895AF92BF92DF92EF92FF920F93BF
S11309801F93CF93DF93CDB7DEB728970FB6F894B4
S1130990DEBF0FBECDBF5C01D62EE982FA820B8387
S11309A01C832D833E834F83588761110BC0DC0168
S11309B01E964C9150E0BE016F5F7F4F09960E94D6
S11309C0D00806C0B6E0B617E8F1E1E0E61778F023
S11309D0ED2DF0E0E05FFE4FD5011E962C91AE01A7
S11309E04F5F5F4F6081C5010E9487030BC0E62FF4
S11309F0F0E0E05FFE4F21E0AE014F5F5F4F6081AA
S1130A000E9487030D2D10E0F801E65FFE4FD5012B
S1130A1017964C916081C5010E94BC0362E0C50138
S1130A200E946403F801EA5EFE4F41E050E000805A
S1130A3002C0440F551F0A94E2F7482B62E0C50137
S1130A400E94BC0328960FB6F894DEBF0FBECDBF3C
S1130A50DF91CF911F910F91FF90EF90DF90BF90A6
S1130A60AF9008951F93CF93DF93EC01162F62E0AC
S1130A700E946403E12FF0E0EA5EFE4F41E050E0A3
S1130A80008002C0440F551F0A94E2F740954823A2
S1130A9062E0CE010E94BC03DF91CF911F910895C3
S1130AA0CF93DF93EC0160E00E946403482F416020
S1130AB060E0CE010E94BC0340E767E0CE010E94E3
S1130AC0BC0361E0CE010E9455038985882349F067
S1130AD02E85AE01475F5F4F6AE0CE010E94870317
S1130AE004C060E0CE010E9432056DE1CE010E9497
S1130AF0640381FF03C0CE010E945104DF91CF91B2
S1130B0008951F93CF93DF93EC0110E51CBD1DBC2A
S1130B1060E00E94A6021EBD00000DB407FEFDCFDA
S1130B208EB583E78EBD00000DB407FEFDCF8EB5F4
S1130B3061E0CE010E94A602DF91CF911F9108953A
S1130B400F931F93CF938C01C62F66E00E9464031A
S1130B50887FC43018F4CC0FCF5F01C0C7E04C2F9E
S1130B60482B66E0C8010E94BC03CF911F910F91EE
S1130B7008950F931F93CF93DF93EC01062F66E044
S1130B800E946403182F177D023051F410628BE920
S1130B9090E0A0E0B0E0888B998BAA8BBB8B14C04B
S1130BA0013049F085E590E0A0E0B0E0888B998BB6
S1130BB0AA8BBB8B09C0186081E490E0A0E0B0E090
S1130BC0888B998BAA8BBB8B412F66E0CE010E9448
S1130BD0BC0366E0CE010E94640391E0181390E028
S1130BE0892FDF91CF911F910F9108951F93CF9378
S1130BF0DF93EC01888199812A813B8182179307D5
S1130C0021F061E070E00E94A40161E070E08A815B
S1130C109B810E94A4010E946B0660E0CE010E94A9
S1130C20550361E0CE010E94A60280E197E201979C
S1130C30F1F74CE060E0CE010E94BC034FE564E0B4
S1130C40CE010E94BC0362E0CE010E94B905882354
S1130C5011F081E08E8366E0CE010E946403182FB8
S1130C608E3011F481E08E8360E0CE010E94B905DC
S1130C70CE010E94810540E06DE1CE010E94BC03DB
S1130C8040E06CE1CE010E94BC03188640E767E0B7
S1130C90CE010E94BC036CE4CE010E946E04CE011E
S1130CA00E944D04CE010E945104CE010E9477049B
S1130CB060E0CE010E946403482F4E7F60E0CE01C5
S1130CC00E94BC03115081E01E3F08F080E0DF91D8
S1130CD0CF911F91089561E070E08AE090E00E9456
S1130CE0A4018CB580618CBD8CB580648CBD61E041
S1130CF070E08DE090E00E94A40161E070E08BE080
S1130D0090E00E94A40108955058BB27AA270E948E
S1130D109C060C940F080E94010838F00E940808F1
S1130D2020F039F49F3F19F426F40C94FE070EF4D6
S1130D30E095E7FB0C94F807E92F0E94200858F38C
S1130D40BA17620773078407950720F079F4A6F5AC
S1130D500C9442080EF4E0950B2EBA2FA02D0B0133
S1130D60B90190010C01CA01A0011124FF27591BEC
S1130D7099F0593F50F4503E68F11A16F040A22FF2
S1130D80232F342F4427585FF3CF46953795279563
S1130D90A795F0405395C9F77EF41F16BA0B620B62
S1130DA0730B840BBAF09150A1F0FF0FBB1F661FA9
S1130DB0771F881FC2F70EC0BA0F621F731F841FEC
S1130DC048F4879577956795B795F7959E3F08F012
S1130DD0B0CF9395880F08F09927EE0F97958795D4
S1130DE008950E94D40708F481E008950E940A0738
S1130DF00C940F080E94080858F00E94010840F063
S1130E0029F45F3F29F00C94F80751110C9443081E
S1130E100C94FE070E94200868F39923B1F355232C
S1130E2091F3951B550BBB27AA27621773078407F9
S1130E3038F09F5F5F4F220F331F441FAA1FA9F38F
S1130E4035D00E2E3AF0E0E832D091505040E6957D
S1130E50001CCAF72BD0FE2F29D0660F771F881FDE
S1130E60BB1F261737074807AB07B0E809F0BB0BD1
S1130E70802DBF01FF2793585F4F3AF09E3F5105E5
S1130E8078F00C94F8070C9443085F3FE4F3983E21
S1130E90D4F3869577956795B795F7959F5FC9F7CE
S1130EA0880F911D9695879597F90895E1E0660F4F
S1130EB0771F881FBB1F621773078407BA0720F0C8
S1130EC0621B730B840BBA0BEE1F88F7E095089531
S1130ED00E94280888F09F5798F0B92F9927B75196
S1130EE0B0F0E1F0660F771F881F991F1AF0BA95CA
S1130EF0C9F714C0B13091F00E944208B1E00895DE
S1130F000C944208672F782F8827B85F39F0B93FCF
S1130F10CCF3869577956795B395D9F73EF490957C
S1130F208095709561957F4F8F4F9F4F0895E894FA
S1130F3009C097FB3EF490958095709561957F4F1D
S1130F408F4F9F4F9923A9F0F92F96E9BB279395CB
S1130F50F695879577956795B795F111F8CFFAF4DB
S1130F60BB0F11F460FF1BC06F5F7F4F8F4F9F4F0C
S1130F7016C0882311F096E911C0772321F09EE86A
S1130F80872F762F05C0662371F096E8862F70E0D0
S1130F9060E02AF09A95660F771F881FDAF7880FAA
S1130FA09695879597F90895990F0008550FAA0B00
S1130FB0E0E8FEEF16161706E807F907C0F0121668
S1130FC01306E407F50798F0621B730B840B950B6B
S1130FD039F40A2661F0232B242B252B21F40895C0
S1130FE00A2609F4A140A6958FEF811D811D08955D
S1130FF097F99F6780E870E060E008959FEF80ECC8
S1131000089500240A94161617061806090608956A
S113101000240A9412161306140605060895092ED0
S11310200394000C11F4882352F0BB0F40F4BF2B3F
S113103011F460FF04C06F5F7F4F8F4F9F4F08957F
S113104057FD9058440F551F59F05F3F71F0479575
S1131050880F97FB991F61F09F3F79F0879508955A
S1131060121613061406551FF2CF4695F1DF08C079
S1131070161617061806991FF1CF86957105610596
S113108008940895E894BB2766277727CB0197F93E
S113109008950E94D40708F48FEF08950E94610810
S11310A00C940F080E94010838F00E94080820F0F0
S11310B0952311F00C94F8070C94FE0711240C945A
S11310C043080E94200870F3959FC1F3950F50E0E8
S11310D0551F629FF001729FBB27F00DB11D639FE6
S11310E0AA27F00DB11DAA1F649F6627B00DA11D8C
S11310F0661F829F2227B00DA11D621F739FB00D32
S1131100A11D621F839FA00D611D221F749F3327A1
S1131110A00D611D231F849F600D211D822F762F3A
S11311206A2F11249F5750409AF0F1F088234AF017
S1131130EE0FFF1FBB1F661F771F881F9150504083
S1131140A9F79E3F510580F00C94F8070C944308CE
S11311505F3FE4F3983ED4F3869577956795B7950A
S1131160F795E7959F5FC1F7FE2B880F911D969524
S1131170879597F90895A29FB001B39FC001A39FDB
S1131180700D811D1124911DB29F700D811D1124BC
S1131190911D0895EE0FFF1F0590F491E02D099421
S11311A0FB01DC0102C001900D9241505040D8F780
S10911B00895F894FFCF3E
S11311B650697065204E554D3A00111213141516D8
S10F11C60A0B0C0D0E0F000102030405BF
S9030000FC
