:100000000C9466000C948E000C948E000C948E0060
:100010000C948E000C948E000C948E000C948E0028
:100020000C948E000C948E000C948E000C948E0018
:100030000C948E000C948E000C948E000C948E0008
:100040000C9499030C948E000C9467030C94410358
:100050000C948E000C948E000C948E000C948E00E8
:100060000C948E000C948E00000000080002010029
:100070000003040700000000000000001112131428
:1000800015160A0B0C0D0E0F0001020304050000EB
:100090000000250028002B0000000000240027009D
:1000A0002A000404040404040404020202020202FA
:1000B000030303030303010204081020408001022C
:1000C00004081020010204081020E30311241FBEBD
:1000D000CFEFD8E0DEBFCDBF21E0A8E1B1E001C0A5
:1000E0001D92A73DB207E1F711E0A0E0B1E0E2ED1B
:1000F000FBE002C005900D92A831B107D9F710E0DE
:10010000C6E6D0E004C02197FE010E94D305C536A3
:10011000D107C9F70E9429040C94E7050C9400004C
:1001200090E0FC01EA54FF4F2491FC01EE55FF4F93
:100130008491882399F090E0880F991FFC01E8567C
:10014000FF4FA591B491FC01E257FF4F8591949127
:100150008FB7F894EC91E22BEC938FBF0895CF9278
:10016000DF92EF92FF920F931F93CF93DF936C0177
:100170007A018B01C0E0D0E0CE15DF0589F0D8010F
:100180006D918D01D601ED91FC910190F081E02DF2
:10019000C6010995892B11F47E0102C02196ECCF8E
:1001A000C701DF91CF911F910F91FF90EF90DF90EA
:1001B000CF900895089580E090E00895FC01538D5C
:1001C000448D252F30E0842F90E0821B930B541731
:1001D00010F0CF96089501970895FC01918D828DBE
:1001E000981761F0828DDF01A80FB11D5D968C918B
:1001F000928D9F5F9F73928F90E008958FEF9FEF96
:100200000895FC01918D828D981731F0828DE80F51
:10021000F11D858D90E008958FEF9FEF0895FC010B
:10022000918D228D892F90E0805C9F4F821B9109D8
:100230008F739927089582E291E00E940F0121E0D7
:10024000892B09F420E0822F0895FC01848DDF01C1
:10025000A80FB11DA35ABF4F2C91848D90E0019639
:100260008F739927848FA689B7892C93A089B18928
:100270008C9180648C93938D848D981306C0028832
:10028000F389E02D80818F7D80830895EF92FF9226
:100290000F931F93CF93DF93EC0181E0888F9B8DA9
:1002A0008C8D981305C0E889F989808185FD24C06B
:1002B000F62E0B8D10E00F5F1F4F0F731127E02EEE
:1002C0008C8DE8120CC00FB607FCFACFE889F989CB
:1002D000808185FFF5CFCE010E942501F1CF8B8D66
:1002E000FE01E80FF11DE35AFF4FF0820B8FEA8900
:1002F000FB898081806207C0EE89FF896083E8897D
:10030000F98980818064808381E090E0DF91CF91E2
:100310001F910F91FF90EF900895CF93DF93EC0121
:10032000888D8823C9F0EA89FB89808185FD05C015
:10033000A889B9898C9186FD0FC00FB607FCF5CF4F
:10034000808185FFF2CFA889B9898C9185FFEDCF97
:10035000CE010E942501E7CFDF91CF91089580E083
:1003600090E0892B29F00E941B0181110C94000060
:10037000089590E0FC01E859FF4F3491FC01EA54E4
:10038000FF4F2491FC01EE55FF4FE491EE2309F459
:100390003BC0332339F1333091F038F43130A9F0D8
:1003A000323001F584B58F7D12C0373091F038308E
:1003B000A1F03430B9F4809180008F7D03C080912A
:1003C00080008F77809380000DC084B58F7784BDC7
:1003D00009C08091B0008F7703C08091B0008F7DFD
:1003E0008093B000F0E0EE0FFF1FE257FF4FA591A2
:1003F000B4918FB7F894EC91611103C020952E232E
:1004000001C02E2B2C938FBF08953FB7F894809195
:100410001D0190911E01A0911F01B091200126B5F0
:10042000A89B05C02F3F19F00196A11DB11D3FBF2C
:10043000BA2FA92F982F8827820F911DA11DB11DBA
:10044000BC01CD0143E0660F771F881F991F4A95B5
:10045000D1F708958F929F92AF92BF92CF92DF9281
:10046000EF92FF926B017C010E9405024B015C013F
:10047000C114D104E104F104F1F00E940502DC0191
:10048000CB0188199909AA09BB09883E9340A105A7
:10049000B10570F321E0C21AD108E108F10888EE35
:1004A000880E83E0981EA11CB11CC114D104E10484
:1004B000F10419F7DDCFFF90EF90DF90CF90BF9060
:1004C000AF909F908F9008958EBD00000DB407FEF1
:1004D000FDCF8EB508959CB59F7D9CBD9CB5937F47
:1004E0009CBD9CB59C7F9CBD9DB591609DBD682FBA
:1004F0008091C1010E94B9018091D3019091D401F2
:100500008330910528F0880F991F04970197F1F720
:1005100008951F93CF93DF931F92CDB7DEB7182FA7
:1005200080E069830E946B02812F8F7180620E943C
:100530006402182F6981862F0E94640281E00E9464
:100540006B02812F0F90DF91CF911F910895CF9370
:1005500080E00E946B0281EE0E946402C82F81E05D
:100560000E946B028C2FCF910895CF93C82F80E00B
:100570000E946B028C2F8F710E9464028FEF0E9489
:100580006402C82F81E00E946B028C2FCF910895E6
:1005900080E00E94B50281FD0BC0682F626080E0A0
:1005A0000E94890265E070E080E090E00C942A02ED
:1005B00008950F931F93CF938C0186E00E94B5029C
:1005C000C82FC77D0230110531F4C0628BE990E07D
:1005D000A0E0B0E00DC00130110529F085E590E004
:1005E000A0E0B0E005C0C86081E490E0A0E0B0E029
:1005F0008093CF019093D001A093D101B093D20109
:100600006C2F86E00E94890286E00E94B50291E08C
:100610008C1390E0892FCF911F910F910895EF9245
:10062000FF920F931F93CF93DF9300D0CDB7DEB728
:10063000082F162F80E049837A830E946B02802F57
:100640008F7180620E946402082FE12E7A81F72E5A
:100650004981140F1E1531F0F70181917F010E942D
:100660006402F8CF81E00E946B02802F0F900F9000
:10067000DF91CF911F910F91FF90EF9008950E940D
:10068000D9051F920F920FB60F9211242F933F930B
:100690004F935F936F937F938F939F93AF93BF938A
:1006A000EF93FF9382E291E00E942501FF91EF9189
:1006B000BF91AF919F918F917F916F915F914F917A
:1006C0003F912F910F900FBE0F901F9018951F9282
:1006D0000F920FB60F9211242F938F939F93EF9346
:1006E000FF93E0913201F09133018081E091380174
:1006F000F091390182FD12C0908180913B018F5FA2
:100700008F7320913C01821751F0E0913B01F0E0A2
:10071000EE5DFE4F958F80933B0101C08081FF917C
:10072000EF919F918F912F910F900FBE0F901F907F
:1007300018951F920F920FB60F9211242F933F938B
:100740008F939F93AF93BF938091190190911A015A
:10075000A0911B01B0911C013091180126E0230FDC
:100760002D3720F40296A11DB11D05C029E8230FE5
:100770000396A11DB11D2093180180931901909338
:100780001A01A0931B01B0931C0180911D0190914F
:100790001E01A0911F01B09120010196A11DB11D64
:1007A00080931D0190931E01A0931F01B09320011F
:1007B000BF91AF919F918F913F912F910F900FBE5D
:1007C0000F901F901895E2E2F1E01382128288EEFA
:1007D00093E0A0E0B0E084839583A683B7838AE0AA
:1007E00091E09183808385EC90E09587848784EC09
:1007F00090E09787868780EC90E0918B808B81ECEE
:1008000090E0938B828B82EC90E0958B848B86ECCE
:1008100090E0978B868B118E128E138E148EEFEBD9
:10082000F1E089E090E0918380838AE090E0938317
:100830008283168280E28783108685E0868785E042
:1008400090E0A0E0B0E0848B958BA68BB78B1186EF
:100850000895789484B5826084BD84B5816084BD38
:1008600085B5826085BD85B5816085BD80916E004E
:10087000816080936E00109281008091810082607F
:1008800080938100809181008160809381008091BC
:1008900080008160809380008091B10084608093AB
:1008A000B1008091B00081608093B00080917A00A7
:1008B000846080937A0080917A00826080937A00CD
:1008C00080917A008E7F80937A0080917A00806890
:1008D00080937A001092C10088E00E94900060E04E
:1008E00088E00E94B9016AE070E080E090E00E9438
:1008F0002A02E0913201F091330182E08083E0919D
:100900002E01F0912F011082E0913001F091310120
:1009100087E6808310923A01E0913601F091370129
:1009200086E08083E0913401F0913501808180611F
:100930008083E0913401F09135018081886080836B
:10094000E0913401F0913501808180688083E091ED
:100950003401F091350180818F7D80838091BF01CA
:100960009091C0012091C1013091C201821793077B
:1009700011F00E9490008091C1019091C2012091DC
:10098000BF013091C0012817390711F00E94900073
:10099000CFB7F89480912101811124C0ECEAF0E0F6
:1009A0008491E0ECF0E09491E82FF0E0EE0FFF1F6F
:1009B000E856FF4FA591B491EC91E92321F461E051
:1009C0008AE00E94B9018AE00E9490008CB58061A3
:1009D0008CBD8CB580648CBD8DE00E9490008BE056
:1009E0000E949000809121018F5F80932101CFBFF1
:1009F0008091BF019091C0012091C1013091C2014D
:100A00008217930719F060E00E94B90181E00E940B
:100A10006B0265E070E080E090E00E942A026CE0EA
:100A200080E00E9489026FE584E00E94890282E0F2
:100A300090E00E94D902882319F081E08093C501DB
:100A400086E00E94B50280E090E00E94D90280E03A
:100A50000E946B0280E50E94640283E70E946402A8
:100A600081E00E946B0260E08DE10E94890260E0FB
:100A70008CE10E9489021092C70160E787E00E9422
:100A800089026CE485E00E94890280E00E946B028A
:100A900082EE0E94640281E00E946B020E94A70223
:100AA0000E94C80280E00E94B502682F6E7F80E03D
:100AB0000E9489024091CD0150E060E071E088EC35
:100AC00091E00E94DE05E2E8F0E084914091CD01E2
:100AD00060E071E00E940F03ECE7F0E08491609128
:100AE000C6010E94890282E00E94B502C8E8D0E0F7
:100AF000FE01949161E070E001C0660F9A95EAF7FB
:100B0000682B82E00E94890286E00E94B502887FFD
:100B1000682F616086E00E94890282E090E00E9476
:100B2000D9020E94C80280E00E94B502682F61606D
:100B300080E00E94890260E787E00E94890280913C
:100B4000BF019091C0012091C1013091C201821773
:100B5000930719F061E00E94B9018091C8018823D0
:100B600041F04091CD0168EC71E08AE00E940F03F2
:100B700011C082E00E94B502FE01C49121E030E084
:100B800001C0220FCA95EAF72095622F682382E000
:100B90000E9489028DE10E94B50281FD0E94A70298
:100BA0000E94AF01FDCFEE0FFF1F0590F491E02DE5
:100BB000099481E090E0F8940C94E705FB01DC01D6
:100BC00002C001900D9241505040D8F70895F8941A
:020BD000FFCF55
:100BD200303030303100000000004601AF00DE004E
:080BE2008D010F01ED0001017E
:00000001FF
