:100000000C9435000C945D000C945D000C945D0024
:100010000C945D000C945D000C945D000C945D00EC
:100020000C945D000C945D000C945D000C945D00DC
:100030000C945D000C945D000C94DB000C945D004E
:100040000C945D000C945D000C945D000C945D00BC
:100050000C945D000C945D000C945D000C945D00AC
:100060000C945D000C945D00220111241FBECFEFA3
:10007000D8E0DEBFCDBF11E0A0E0B1E0E8E0F0E104
:1000800002C005900D92AA30B107D9F721E0AAE08D
:10009000B1E001C01D92A432B207E1F710E0C5E360
:1000A000D0E004C02197FE010E94FC07C433D107B1
:1000B000C9F70E94F2000C9402080C940000E1ECD5
:1000C000F0E010821092C000A2ECB0E08C918E6043
:1000D0008C9383E38093C4001092C5008081886173
:1000E0008083089561307105F1F48830910570F0D6
:1000F00044B1089721E030E0B90102C0660F771FD4
:100100008A95E2F7CB01842B84B908954AB121E0A6
:1001100030E0B90102C0660F771F8A95E2F7CB0184
:10012000842B8AB90895089718F084B184B908958A
:100130008AB18AB908956623F1F08830910570F08C
:1001400045B1089721E030E0B90102C0660F771F82
:100150008A95E2F7CB01842B85B908954BB121E054
:1001600030E0B90102C0660F771F8A95E2F7CB0134
:10017000842B8BB908958830910578F045B10897A4
:1001800021E030E0B90102C0660F771F8A95E2F7DF
:10019000CB018095842385B908954BB121E030E0EF
:1001A000B90102C0660F771F8A95E2F7CB018095EF
:1001B00084238BB908951F920F920FB60F921124CA
:1001C0008F939F9380910A0190910B0101969093D8
:1001D0000B0180930A019F918F910F900FBE0F909A
:1001E0001F90189560E875E280E090E00E945F0043
:1001F0008CE091E00E94370562E08CE091E00E9483
:10020000FA0403EE10EF20EF30EF40EF50E060E033
:1002100070E08CE091E00E94A0048CE091E00E94EC
:10022000FA02C8ECD0E04AE060E071E08CE091E0D6
:100230000E949C048FEF9FEFFE013197F1F7019729
:1002400091F3FACF4AE050E069E070E08CE091E091
:100250000E94DC0208954F925F926F927F928F927C
:100260009F92AF92BF92CF92DF92EF92FF921F9335
:10027000CF93DF93EC018A819B810E949B006C8964
:100280007D898E899F890E94D8066B017C012BEAAB
:100290003AEA4AE250E40E948F074B015C0120E0F9
:1002A00030E040E85FE30E94320688230CF46EC021
:1002B000A7019601C701B6010E94C6052B013C01AA
:1002C00020E03FEF4FE757E40E948A0718160CF032
:1002D00045C020E030E04AE754E4C701B6010E947F
:1002E00037064B015C0120E030E04AEF54E40E9405
:1002F0008F076B017C0120E030E040E85FE30E9463
:10030000320688232CF120E03FEF4FE757E4C70186
:10031000B6010E948A071816B4F420E030E040E2EB
:1003200051E4C501B4010E948F070E94A90661151E
:10033000710569F128EC30E0C9010197F1F76150CE
:100340007109D1F724C0C701B6010E94A90602C0F5
:1003500061E070E0CB010197F1F719C020E030E0D7
:100360004FE753E4C501B4010E948A07181644F40C
:10037000C301B2010E94A906CB010197F1F70AC09F
:10038000C501B4010E94A906162F01C011E0612F1A
:100390006A95F1F7DF91CF911F91FF90EF90DF9079
:1003A000CF90BF90AF909F908F907F906F905F9015
:1003B0004F900895FC0180819181228133818217C1
:1003C000930711F00E949B0084E091E00197F1F700
:1003D00008950F931F93CF938C01C62F80E58CBD9A
:1003E0001DBC60E0C8010E942B01CF71CEBD000092
:1003F0000DB407FEFDCF8EB58FEF8EBD00000DB49E
:1004000007FEFDCFCEB561E0C8010E942B018C2F05
:10041000CF911F910F910895EF92FF920F931F9329
:10042000CF93DF938C01C62FE42EF52ED22F80E5DB
:100430008CBD1DBC60E0C8010E942B01CF71C06261
:10044000CEBD00000DB407FEFDCFCEB58FEF8D0FF2
:10045000DD2359F0EE2DFF2D91919EBD00000DB4CE
:1004600007FEFDCF9EB58150B8F761E0C8010E943C
:100470002B018C2FDF91CF911F910F91FF90EF9067
:1004800008950F931F93CF93DF938C01C62FD42F22
:1004900080E58CBD1DBC60E0C8010E942B01CF71BE
:1004A000C062CEBD00000DB407FEFDCFCEB5DEBDEF
:1004B00000000DB407FEFDCF8EB561E0C8010E94BB
:1004C0002B018C2FDF91CF911F910F910895DF9217
:1004D000EF92FF920F931F93CF93DF93EC01D62EF1
:1004E000E72EF22E8F81082F481708F4042F9885E5
:1004F000911103C0182F101B01C010E080E58CBDC6
:100500001DBC60E0CE010E942B01FEBC00000DB4BA
:1005100007FEFDCFFEB48FEF800F011105C08FEFF6
:10052000810F11110DC014C0ED2DFE2D91919EBDB6
:1005300000000DB407FEFDCF9EB58150B8F7EFCF98
:100540001EBC00000DB407FEFDCF9EB58150C0F764
:1005500061E0CE010E942B018F2DDF91CF911F9181
:100560000F91FF90EF90DF9008951F93CF93DF934B
:10057000EC01162F80E58CBD1DBC60E0CE010E9411
:100580002B011EBD00000DB407FEFDCF1EB561E0BE
:10059000CE010E942B01812FDF91CF911F910895F1
:1005A00062EE0E94B502089561EE0E94B5020895C0
:1005B0006FEF0E94B5020895FC017183608353833D
:1005C0004283168280E28783108685E0868785E0F5
:1005D00090E0A0E0B0E0848B958BA68BB78B118662
:1005E00008956D3710F4462F01C04DE765E00E9475
:1005F000410208954F925F926F927F928F929F92E5
:10060000AF92BF92CF92DF92EF92FF920F931F9320
:10061000CF93DF93EC0160E00E94DA016889798969
:100620008A899B890E94D8066B017C012BEA3AEAF1
:100630004AE250E40E948F074B015C0120E030E069
:1006400040E85FE30E94320688230CF46EC0A701E5
:100650009601C701B6010E94C6052B013C0120E0AE
:100660003FEF4FE757E40E948A0718160CF045C089
:1006700020E030E04AE754E4C701B6010E943706A3
:100680004B015C0120E030E04AEF54E40E948F0708
:100690006B017C0120E030E040E85FE30E9432061D
:1006A00088232CF120E03FEF4FE757E4C701B60164
:1006B0000E948A071816B4F420E030E040E251E4CA
:1006C000C501B4010E948F070E94A906611571053A
:1006D00069F128EC30E0C9010197F1F76150710927
:1006E000D1F724C0C701B6010E94A90602C061E08B
:1006F00070E0CB010197F1F719C020E030E04FE73F
:1007000053E4C501B4010E948A07181644F4C301DA
:10071000B2010E94A906CB010197F1F709C0C501FA
:10072000B4010E94A906162F01C011E01A95F1F735
:100730006DE1CE010E94E90181FF8DC06889798950
:100740008A899B890E94D8066B017C012BEA3AEAD0
:100750004AE250E40E948F074B015C0120E030E048
:1007600040E85FE30E94320688230CF46EC0A701C4
:100770009601C701B6010E94C6052B013C0120E08D
:100780003FEF4FE757E40E948A0718160CF045C068
:1007900020E030E04AE754E4C701B6010E94370682
:1007A0004B015C0120E030E04AEF54E40E948F07E7
:1007B0006B017C0120E030E040E85FE30E943206FC
:1007C00088232CF120E03FEF4FE757E4C701B60143
:1007D0000E948A071816B4F420E030E040E251E4A9
:1007E000C501B4010E948F070E94A9066115710519
:1007F00069F128EC30E0C9010197F1F76150710906
:10080000D1F724C0C701B6010E94A90602C061E069
:1008100070E0CB010197F1F719C020E030E04FE71D
:1008200053E4C501B4010E948A07181644F4C301B9
:10083000B2010E94A906CB010197F1F709C0C501D9
:10084000B4010E94A906062F01C001E00A95F1F744
:10085000CE010E94D40260E0CE010E94E901482F3F
:100860004E7F60E0CE010E94410262E0CE010E9414
:10087000E901482F416062E0CE010E944102DF9110
:10088000CF911F910F91FF90EF90DF90CF90BF908D
:10089000AF909F908F907F906F905F904F90089552
:1008A000CF93DF93EC0160E00E94E90181FD0AC073
:1008B000482F426060E0CE010E94410280E197E251
:1008C0000197F1F7DF91CF9108950F93CF93DF93C5
:1008D000EC01211102C020EA01C020EBCE010E94F0
:1008E0006702002321F061E0CE010E94DA01DF916E
:1008F000CF910F9108950F93CF93DF93EC0101E017
:100900000E946504CE010E94D8028073D9F360E092
:10091000CE010E94DA0140E767E0CE010E94410269
:1009200084FF05C0CE010E94D40280E001C081E0B6
:10093000DF91CF910F91089520E00E947B040895EC
:10094000EF92FF920F931F93CF93DF93CDB7DEB754
:1009500028970FB6F894DEBF0FBECDBF7C01098388
:100960001A832B833C834D835E836F837887FC01DE
:100970002685AE014F5F5F4F6AE00E940C02F701CF
:100980002685AE014F5F5F4F60E1C7010E940C02F8
:10099000F701478161E1C7010E94410228960FB625
:1009A000F894DEBF0FBECDBFDF91CF911F910F91A5
:1009B000FF90EF9008951F93CF93DF93EC0110E524
:1009C0001CBD1DBC60E00E942B011EBD00000DB4CB
:1009D00007FEFDCF8EB583E78EBD00000DB407FE88
:1009E000FDCF8EB561E0CE010E942B01DF91CF914A
:1009F0001F9108950F931F93CF93DF93EC01062F60
:100A000066E00E94E901182F177D023051F4106250
:100A10008BE990E0A0E0B0E0888B998BAA8BBB8B30
:100A200014C0013049F085E590E0A0E0B0E0888B8B
:100A3000998BAA8BBB8B09C0186081E490E0A0E081
:100A4000B0E0888B998BAA8BBB8B412F66E0CE01DF
:100A50000E94410266E0CE010E94E90191E0181374
:100A600090E0892FDF91CF911F910F9108951F93EF
:100A7000CF93DF93EC01888199812A813B81821792
:100A8000930721F061E070E00E94720061E070E085
:100A90008A819B810E9472000E94AC0560E0CE01B9
:100AA0000E94DA0161E0CE010E942B0180E197E211
:100AB0000197F1F74CE060E0CE010E9441024FE562
:100AC00064E0CE010E94410262E0CE010E94FA047D
:100AD000882311F081E08E8366E0CE010E94E90157
:100AE000182F8E3011F481E08E8360E0CE010E94D9
:100AF000FA04CE010E94DB0440E06DE1CE010E94C9
:100B0000410240E06CE1CE010E944102188640E7BC
:100B100067E0CE010E9441026CE4CE010E94F10226
:100B2000CE010E94D002CE010E94D402CE010E94CA
:100B3000500460E0CE010E94E901482F4E7F60E042
:100B4000CE010E944102115081E01E3F08F080E07A
:100B5000DF91CF911F91089561E070E08AE090E00D
:100B60000E9472008CB580618CBD8CB580648CBD98
:100B700061E070E08DE090E00E94720061E070E062
:100B80008BE090E00E94720008955058BB27AA277E
:100B90000E94DD050C9450070E94420738F00E9425
:100BA000490720F039F49F3F19F426F40C943F07CD
:100BB0000EF4E095E7FB0C943907E92F0E946107DA
:100BC00058F3BA17620773078407950720F079F482
:100BD000A6F50C9483070EF4E0950B2EBA2FA02DEA
:100BE0000B01B90190010C01CA01A0011124FF27DA
:100BF000591B99F0593F50F4503E68F11A16F040D5
:100C0000A22F232F342F4427585FF3CF46953795D3
:100C10002795A795F0405395C9F77EF41F16BA0B98
:100C2000620B730B840BBAF09150A1F0FF0FBB1F46
:100C3000661F771F881FC2F70EC0BA0F621F731F8F
:100C4000841F48F4879577956795B795F7959E3FEC
:100C500008F0B0CF9395880F08F09927EE0F97957D
:100C6000879508950E94150708F481E008950E9471
:100C70004B060C9450070E94490758F00E94420707
:100C800040F029F45F3F29F00C94390751110C947E
:100C900084070C943F070E94610768F39923B1F31E
:100CA000552391F3951B550BBB27AA276217730792
:100CB000840738F09F5F5F4F220F331F441FAA1F26
:100CC000A9F335D00E2E3AF0E0E832D091505040E2
:100CD000E695001CCAF72BD0FE2F29D0660F771F90
:100CE000881FBB1F261737074807AB07B0E809F076
:100CF000BB0B802DBF01FF2793585F4F3AF09E3FFB
:100D0000510578F00C9439070C9484075F3FE4F3A5
:100D1000983ED4F3869577956795B795F7959F5F3D
:100D2000C9F7880F911D9695879597F90895E1E089
:100D3000660F771F881FBB1F621773078407BA07E8
:100D400020F0621B730B840BBA0BEE1F88F7E09543
:100D500008950E94690788F09F5798F0B92F992746
:100D6000B751B0F0E1F0660F771F881F991F1AF096
:100D7000BA95C9F714C0B13091F00E948307B1E071
:100D800008950C948307672F782F8827B85F39F070
:100D9000B93FCCF3869577956795B395D9F73EF42F
:100DA00090958095709561957F4F8F4F9F4F0895D7
:100DB000E89409C097FB3EF49095809570956195F5
:100DC0007F4F8F4F9F4F9923A9F0F92F96E9BB27AB
:100DD0009395F695879577956795B795F111F8CF27
:100DE000FAF4BB0F11F460FF1BC06F5F7F4F8F4F92
:100DF0009F4F16C0882311F096E911C0772321F088
:100E00009EE8872F762F05C0662371F096E8862F1F
:100E100070E060E02AF09A95660F771F881FDAF776
:100E2000880F9695879597F90895990F0008550FA3
:100E3000AA0BE0E8FEEF16161706E807F907C0F060
:100E400012161306E407F50798F0621B730B840B68
:100E5000950B39F40A2661F0232B242B252B21F442
:100E600008950A2609F4A140A6958FEF811D811DE2
:100E7000089597F99F6780E870E060E008959FEF1C
:100E800080EC089500240A94161617061806090621
:100E9000089500240A9412161306140605060895F0
:100EA000092E0394000C11F4882352F0BB0F40F478
:100EB000BF2B11F460FF04C06F5F7F4F8F4F9F4FB8
:100EC000089557FD9058440F551F59F05F3F71F03A
:100ED0004795880F97FB991F61F09F3F79F08795A1
:100EE0000895121613061406551FF2CF4695F1DF2A
:100EF00008C0161617061806991FF1CF86957105BA
:100F0000610508940895E894BB2766277727CB01ED
:100F100097F908950E94150708F48FEF08950E942D
:100F2000A2070C9450070E94420738F00E9449071C
:100F300020F0952311F00C9439070C943F071124ED
:100F40000C9484070E94610770F3959FC1F3950F7D
:100F500050E0551F629FF001729FBB27F00DB11D3D
:100F6000639FAA27F00DB11DAA1F649F6627B00DCD
:100F7000A11D661F829F2227B00DA11D621F739FB6
:100F8000B00DA11D621F839FA00D611D221F749FC4
:100F90003327A00D611D231F849F600D211D822F0B
:100FA000762F6A2F11249F5750409AF0F1F0882332
:100FB0004AF0EE0FFF1FBB1F661F771F881F91505F
:100FC0005040A9F79E3F510580F00C9439070C94CE
:100FD00084075F3FE4F3983ED4F386957795679551
:100FE000B795F795E7959F5FC1F7FE2B880F911D89
:100FF0009695879597F90895EE0FFF1F0590F49148
:08100000E02D0994F894FFCFE4
:0A1008004559534950323031380089
:00000001FF
