S010000052465452414E53322E73726563C2
S11300000C9435000C945D000C945D000C945D0020
S11300100C945D000C945D000C9434010C945D0010
S11300200C945D000C945D000C945D000C945D00D8
S11300300C945D000C945D000C94DB000C945D004A
S11300400C945D000C945D000C945D000C945D00B8
S11300500C945D000C945D000C945D000C945D00A8
S11300600C945D000C945D00740111241FBECFEF4D
S1130070D8E0DEBFCDBF11E0A0E0B1E0E2EDF0E1F9
S113008002C005900D92AA30B107D9F721E0AAE089
S1130090B1E001C01D92A432B207E1F710E0C5E35C
S11300A0D0E004C02197FE010E946108C433D10747
S11300B0C9F70E943E010C9467080C940000E1EC1F
S11300C0F0E010821092C000A2ECB0E08C918E603F
S11300D08C9383E38093C4001092C500808188616F
S11300E08083089561307105F1F48830910570F0D2
S11300F044B1089721E030E0B90102C0660F771FD0
S11301008A95E2F7CB01842B84B908954AB121E0A2
S113011030E0B90102C0660F771F8A95E2F7CB0180
S1130120842B8AB90895089718F084B184B9089586
S11301308AB18AB908956623F1F08830910570F088
S113014045B1089721E030E0B90102C0660F771F7E
S11301508A95E2F7CB01842B85B908954BB121E050
S113016030E0B90102C0660F771F8A95E2F7CB0130
S1130170842B8BB908958830910578F045B10897A0
S113018021E030E0B90102C0660F771F8A95E2F7DB
S1130190CB018095842385B908954BB121E030E0EB
S11301A0B90102C0660F771F8A95E2F7CB018095EB
S11301B084238BB908951F920F920FB60F921124C6
S11301C08F939F9380910A0190910B0101969093D4
S11301D00B0180930A019F918F910F900FBE0F9096
S11301E01F9018950F931F93CF93DF938C01C0E05A
S11301F0D0E061E070E0CE010E9472002196C4312B
S1130200D105B9F7E0E6F0E088E1808386E08083F9
S1130210808180648083EAE7F0E080818F77808347
S11302208FE380937E0083E080937F0083B78460B4
S113023083BF83B7816083BF0115110581F0A801D5
S113024020E030E095B7906695BF95B79F799064AC
S113025095BF88952F5F3F4F4217530799F7DF915A
S1130260CF911F910F9108951F920F920FB60F9285
S113027011240F900FBE0F901F90189560E875E23F
S113028080E090E00E945F008CE091E00E949C0579
S113029062E08CE091E00E945F0503EE10EF20EF36
S11302A030EF40EF50E060E070E08CE091E00E94BD
S11302B005058CE091E00E944C034AE060E071E0A7
S11302C08CE091E00E9401058823B9F378948CE0D6
S11302D091E00E94A20484E190E00E94F2008CE08C
S11302E091E00E94B504E9CF4AE050E069E070E093
S11302F08CE091E00E942E0308954F925F926F92DA
S11303007F928F929F92AF92BF92CF92DF92EF92A1
S1130310FF921F93CF93DF93EC018A819B810E940C
S11303209B006C897D898E899F890E943D076B01A2
S11303307C012BEA3AEA4AE250E40E94F4074B01BA
S11303405C0120E030E040E85FE30E9497068823E8
S11303500CF46EC0A7019601C701B6010E942B06DA
S11303602B013C0120E03FEF4FE757E40E94EF07E9
S113037018160CF045C020E030E04AE754E4C70109
S1130380B6010E949C064B015C0120E030E04AEF7C
S113039054E40E94F4076B017C0120E030E040E863
S11303A05FE30E94970688232CF120E03FEF4FE79C
S11303B057E4C701B6010E94EF071816B4F420E011
S11303C030E040E251E4C501B4010E94F4070E9408
S11303D00E076115710569F128EC30E0C901019738
S11303E0F1F761507109D1F724C0C701B6010E9429
S11303F00E0702C061E070E0CB010197F1F719C06C
S113040020E030E04FE753E4C501B4010E94EF0758
S1130410181644F4C301B2010E940E07CB010197E0
S1130420F1F70AC0C501B4010E940E07162F01C0DE
S113043011E0612F6A95F1F7DF91CF911F91FF9041
S1130440EF90DF90CF90BF90AF909F908F907F9070
S11304506F905F904F900895FC018081918122817B
S113046033818217930711F00E949B0084E091E08E
S11304700197F1F708950F931F93CF938C01C62F23
S113048080E58CBD1DBC60E0C8010E947D01CF7178
S1130490CEBD00000DB407FEFDCF8EB58FEF8EBD2F
S11304A000000DB407FEFDCFCEB561E0C8010E9487
S11304B07D018C2FCF911F910F910895EF92FF92A0
S11304C00F931F93CF93DF938C01C62FE42EF52E49
S11304D0D22F80E58CBD1DBC60E0C8010E947D0167
S11304E0CF71C062CEBD00000DB407FEFDCFCEB506
S11304F08FEF8D0FDD2359F0EE2DFF2D91919EBDD1
S113050000000DB407FEFDCF9EB58150B8F761E041
S1130510C8010E947D018C2FDF91CF911F910F9113
S1130520FF90EF9008950F931F93CF93DF938C0167
S1130530C62FD42F80E58CBD1DBC60E0C8010E948D
S11305407D01CF71C062CEBD00000DB407FEFDCFAA
S1130550CEB5DEBD00000DB407FEFDCF8EB561E063
S1130560C8010E947D018C2FDF91CF911F910F91C3
S11305700895DF92EF92FF920F931F93CF93DF932F
S1130580EC01D62EE72EF22E8F81082F481708F49F
S1130590042F9885911103C0182F101B01C010E07F
S11305A080E58CBD1DBC60E0CE010E947D01FEBCD7
S11305B000000DB407FEFDCFFEB48FEF800F0111D4
S11305C005C08FEF810F11110DC014C0ED2DFE2D4C
S11305D091919EBD00000DB407FEFDCF9EB58150E4
S11305E0B8F7EFCF1EBC00000DB407FEFDCF9EB5DB
S11305F08150C0F761E0CE010E947D018F2DDF9113
S1130600CF911F910F91FF90EF90DF9008951F936A
S1130610CF93DF93EC01162F80E58CBD1DBC60E009
S1130620CE010E947D011EBD00000DB407FEFDCF6A
S11306301EB561E0CE010E947D01812FDF91CF9133
S11306401F91089562EE0E940703089561EE0E94CF
S1130650070308956FEF0E9407030895FC01718357
S1130660608353834283168280E28783108685E009
S1130670868785E090E0A0E0B0E0848B958BA68B24
S1130680B78B118608956D3710F4462F01C04DE7DE
S113069065E00E94930208954F925F926F927F9259
S11306A08F929F92AF92BF92CF92DF92EF92FF927E
S11306B00F931F93CF93DF93EC0160E00E942C0211
S11306C0688979898A899B890E943D076B017C012D
S11306D02BEA3AEA4AE250E40E94F4074B015C0137
S11306E020E030E040E85FE30E94970688230CF4A2
S11306F06EC0A7019601C701B6010E942B062B010B
S11307003C0120E03FEF4FE757E40E94EF07181643
S11307100CF045C020E030E04AE754E4C701B601DC
S11307200E949C064B015C0120E030E04AEF54E457
S11307300E94F4076B017C0120E030E040E85FE3B5
S11307400E94970688232CF120E03FEF4FE757E4FF
S1130750C701B6010E94EF071816B4F420E030E098
S113076040E251E4C501B4010E94F4070E940E075F
S11307706115710569F128EC30E0C9010197F1F7C1
S113078061507109D1F724C0C701B6010E940E0758
S113079002C061E070E0CB010197F1F719C020E0DD
S11307A030E04FE753E4C501B4010E94EF07181687
S11307B044F4C301B2010E940E07CB010197F1F783
S11307C009C0C501B4010E940E07162F01C011E033
S11307D01A95F1F76DE1CE010E943B0281FF8DC0B5
S11307E0688979898A899B890E943D076B017C010C
S11307F02BEA3AEA4AE250E40E94F4074B015C0116
S113080020E030E040E85FE30E94970688230CF480
S11308106EC0A7019601C701B6010E942B062B01E9
S11308203C0120E03FEF4FE757E40E94EF07181622
S11308300CF045C020E030E04AE754E4C701B601BB
S11308400E949C064B015C0120E030E04AEF54E436
S11308500E94F4076B017C0120E030E040E85FE394
S11308600E94970688232CF120E03FEF4FE757E4DE
S1130870C701B6010E94EF071816B4F420E030E077
S113088040E251E4C501B4010E94F4070E940E073E
S11308906115710569F128EC30E0C9010197F1F7A0
S11308A061507109D1F724C0C701B6010E940E0737
S11308B002C061E070E0CB010197F1F719C020E0BC
S11308C030E04FE753E4C501B4010E94EF07181666
S11308D044F4C301B2010E940E07CB010197F1F762
S11308E009C0C501B4010E940E07062F01C001E032
S11308F00A95F1F7CE010E94260360E0CE010E9422
S11309003B02482F4E7F60E0CE010E94930262E0DA
S1130910CE010E943B02482F416062E0CE010E945A
S11309209302DF91CF911F910F91FF90EF90DF9091
S1130930CF90BF90AF909F908F907F906F905F907B
S11309404F900895CF93DF93EC0160E00E942C0256
S113095060E0CE010E943B02482F4D7F60E0CE0153
S11309600E949302DF91CF910895CF93DF93EC011E
S113097060E00E943B0281FD0AC0482F426060E0B3
S1130980CE010E94930280E197E20197F1F7DF9193
S1130990CF9108950F93CF93DF93EC01211102C0FF
S11309A020EA01C020EBCE010E94B902002321F00D
S11309B061E0CE010E942C02DF91CF910F91089546
S11309C00F93CF93DF93EC0101E00E94CA04CE01A0
S11309D00E942A038073D9F360E0CE010E942C02A6
S11309E040E767E0CE010E94930284FF05C0CE0178
S11309F00E94260380E001C081E0DF91CF910F9136
S1130A00089520E00E94E0040895EF92FF920F936E
S1130A101F93CF93DF93CDB7DEB728970FB6F89423
S1130A20DEBF0FBECDBF7C0109831A832B833C83B9
S1130A304D835E836F837887FC012685AE014F5F0B
S1130A405F4F6AE00E945E02F7012685AE014F5FA8
S1130A505F4F60E1C7010E945E02F701478161E1D7
S1130A60C7010E94930228960FB6F894DEBF0FBE0A
S1130A70CDBFDF91CF911F910F91FF90EF9008951B
S1130A801F93CF93DF93EC0110E51CBD1DBC60E008
S1130A900E947D011EBD00000DB407FEFDCF8EB582
S1130AA083E78EBD00000DB407FEFDCF8EB561E077
S1130AB0CE010E947D01DF91CF911F9108950F9384
S1130AC01F93CF93DF93EC01062F66E00E943B0255
S1130AD0182F177D023051F410628BE990E0A0E0EA
S1130AE0B0E0888B998BAA8BBB8B14C0013049F082
S1130AF085E590E0A0E0B0E0888B998BAA8BBB8B56
S1130B0009C0186081E490E0A0E0B0E0888B998B84
S1130B10AA8BBB8B412F66E0CE010E94930266E054
S1130B20CE010E943B0291E0181390E0892FDF91DF
S1130B30CF911F910F9108951F93CF93DF93EC01F1
S1130B40888199812A813B818217930721F061E092
S1130B5070E00E94720061E070E08A819B810E94D3
S1130B6072000E94110660E0CE010E942C0261E036
S1130B70CE010E947D0180E197E20197F1F74CE0FC
S1130B8060E0CE010E9493024FE564E0CE010E9432
S1130B90930262E0CE010E945F05882311F081E098
S1130BA08E8366E0CE010E943B02182F8E3011F432
S1130BB081E08E8360E0CE010E945F05CE010E9439
S1130BC0400540E06DE1CE010E94930240E06CE1FB
S1130BD0CE010E949302188640E767E0CE010E948E
S1130BE093026CE4CE010E944303CE010E942203CF
S1130BF0CE010E942603CE010E94B50460E0CE011E
S1130C000E943B02482F4E7F60E0CE010E94930277
S1130C10115081E01E3F08F080E0DF91CF911F91D9
S1130C20089561E070E08AE090E00E9472008CB563
S1130C3080618CBD8CB580648CBD61E070E08DE01A
S1130C4090E00E94720061E070E08BE090E00E940E
S1130C50720008955058BB27AA270E9442060C949C
S1130C60B5070E94A70738F00E94AE0720F039F4B8
S1130C709F3F19F426F40C94A4070EF4E095E7FBC7
S1130C800C949E07E92F0E94C60758F3BA1762070F
S1130C9073078407950720F079F4A6F50C94E80708
S1130CA00EF4E0950B2EBA2FA02D0B01B901900183
S1130CB00C01CA01A0011124FF27591B99F0593FC7
S1130CC050F4503E68F11A16F040A22F232F342F0F
S1130CD04427585FF3CF469537952795A795F0405D
S1130CE05395C9F77EF41F16BA0B620B730B840B72
S1130CF0BAF09150A1F0FF0FBB1F661F771F881F2A
S1130D00C2F70EC0BA0F621F731F841F48F4879581
S1130D1077956795B795F7959E3F08F0B0CF939573
S1130D20880F08F09927EE0F9795879508950E94EC
S1130D307A0708F481E008950E94B0060C94B50780
S1130D400E94AE0758F00E94A70740F029F45F3FC5
S1130D5029F00C949E0751110C94E9070C94A407F4
S1130D600E94C60768F39923B1F3552391F3951BA9
S1130D70550BBB27AA2762177307840738F09F5FB8
S1130D805F4F220F331F441FAA1FA9F335D00E2E25
S1130D903AF0E0E832D091505040E695001CCAF792
S1130DA02BD0FE2F29D0660F771F881FBB1F261755
S1130DB037074807AB07B0E809F0BB0B802DBF012C
S1130DC0FF2793585F4F3AF09E3F510578F00C94FB
S1130DD09E070C94E9075F3FE4F3983ED4F38695AD
S1130DE077956795B795F7959F5FC9F7880F911D1C
S1130DF09695879597F90895E1E0660F771F881F08
S1130E00BB1F621773078407BA0720F0621B730BBA
S1130E10840BBA0BEE1F88F7E09508950E94CE0765
S1130E2088F09F5798F0B92F9927B751B0F0E1F0A7
S1130E30660F771F881F991F1AF0BA95C9F714C057
S1130E40B13091F00E94E807B1E008950C94E807EE
S1130E50672F782F8827B85F39F0B93FCCF3869590
S1130E6077956795B395D9F73EF4909580957095ED
S1130E7061957F4F8F4F9F4F0895E89409C097FB6A
S1130E803EF490958095709561957F4F8F4F9F4F5D
S1130E909923A9F0F92F96E9BB279395F6958795A1
S1130EA077956795B795F111F8CFFAF4BB0F11F464
S1130EB060FF1BC06F5F7F4F8F4F9F4F16C088230B
S1130EC011F096E911C0772321F09EE8872F762F41
S1130ED005C0662371F096E8862F70E060E02AF082
S1130EE09A95660F771F881FDAF7880F969587956E
S1130EF097F90895990F0008550FAA0BE0E8FEEF43
S1130F0016161706E807F907C0F012161306E407C9
S1130F10F50798F0621B730B840B950B39F40A26C2
S1130F2061F0232B242B252B21F408950A2609F4A0
S1130F30A140A6958FEF811D811D089597F99F67A4
S1130F4080E870E060E008959FEF80EC089500244D
S1130F500A941616170618060906089500240A941A
S1130F6012161306140605060895092E0394000CA0
S1130F7011F4882352F0BB0F40F4BF2B11F460FF2F
S1130F8004C06F5F7F4F8F4F9F4F089557FD905858
S1130F90440F551F59F05F3F71F04795880F97FB39
S1130FA0991F61F09F3F79F08795089512161306F3
S1130FB01406551FF2CF4695F1DF08C01616170622
S1130FC01806991FF1CF8695710561050894089557
S1130FD0E894BB2766277727CB0197F908950E94E9
S1130FE07A0708F48FEF08950E9407080C94B50758
S1130FF00E94A70738F00E94AE0720F0952311F055
S11310000C949E070C94A40711240C94E9070E94E5
S1131010C60770F3959FC1F3950F50E0551F629F6B
S1131020F001729FBB27F00DB11D639FAA27F00D3D
S1131030B11DAA1F649F6627B00DA11D661F829F64
S11310402227B00DA11D621F739FB00DA11D621F49
S1131050839FA00D611D221F749F3327A00D611D66
S1131060231F849F600D211D822F762F6A2F112448
S11310709F5750409AF0F1F088234AF0EE0FFF1F7B
S1131080BB1F661F771F881F91505040A9F79E3FD2
S1131090510580F00C949E070C94E9075F3FE4F33C
S11310A0983ED4F3869577956795B795F795E79528
S11310B09F5FC1F7FE2B880F911D9695879597F931
S11310C00895EE0FFF1F0590F491E02D0994F89414
S10510D0FFCF4C
S10D10D245595349503230313800BB
S9030000FC
