S0110000524674657374696E672E737265637D
S11300000C9435000C945D000C945D000C945D0020
S11300100C945D000C945D000C945D000C945D00E8
S11300200C945D000C945D000C945D000C945D00D8
S11300300C945D000C945D000C94FE000C945D0027
S11300400C945D000C945D000C945D000C945D00B8
S11300500C945D000C945D000C945D000C945D00A8
S11300600C945D000C945D007C0111241FBECFEF45
S1130070D8E0DEBFCDBF12E0A0E0B1E0EEEDF6E1E6
S113008002C005900D92A031B107D9F722E0A0E19A
S1130090B2E001C01D92A433B207E1F710E0C5E35A
S11300A0D0E004C02197FE010E948908C433D1071F
S11300B0C9F70E9415010C946D0B0C940000E1EC3F
S11300C0F0E010821092C000A2ECB0E08C918E603F
S11300D08C9383E38093C4001092C500808188616F
S11300E08083089590E49093C000E0ECF0E0908168
S11300F095FFFDCF8093C600E0ECF0E0808186FFA1
S1130100FDCF08950F931F93CF93FC018081882323
S113011059F08F01C0E00E947200CF5FF801EC0F2C
S1130120F11D80818111F7CFCF911F910F91089517
S113013061307105F1F48830910570F044B108978D
S113014021E030E0B90102C0660F771F8A95E2F71B
S1130150CB01842B84B908954AB121E030E0B90180
S113016002C0660F771F8A95E2F7CB01842B8AB908
S11301700895089718F084B184B908958AB18AB9AA
S113018008956623D9F08830910558F0089721E046
S113019030E0A90102C0440F551F8A95E2F745B922
S11301A008954BB121E030E0B90102C0660F771F1A
S11301B08A95E2F7CB01842B8BB908958830910599
S11301C078F045B1089721E030E0B90102C0660F2C
S11301D0771F8A95E2F7CB018095842385B908952A
S11301E04BB121E030E0B90102C0660F771F8A9558
S11301F0E2F7CB01809584238BB908951F920F9267
S11302000FB60F9211248F939F93809110029091B7
S11302101102019690931102809310029F918F9185
S11302200F900FBE0F901F901895CF93DF9300D0BF
S113023000D000D0CDB7DEB761E070E081E090E09F
S11302400E94980060E875E280E090E00E945F0000
S113025085E192E00E94B50561E271E085E192E0FA
S11302600E94230563E085E192E00E94590585E13F
S113027092E00E946A0308EC10E085E192E00E949B
S1130280D30486E0EBE1F1E0DE01119601900D92DA
S11302908A95E1F746E0BE016F5F7F4F85E192E00A
S11302A00E941F0580E197E2F8013197F1F7019769
S11302B0D9F785E192E00E94C00480E29EE4F8014F
S11302C03197F1F70197D9F78091130290911402B5
S11302D00196909314028093130285E192E00E94A8
S11302E072058093120280E091E00E9482008DE00A
S11302F091E00E948200C1CF4AE050E069E070E0E2
S113030085E192E00E944C0308954F925F926F92B0
S11303107F928F929F92AF92BF92CF92DF92EF9291
S1130320FF921F93CF93DF93EC018CB58F7D8CBD2F
S11303308CB5837F8CBD8CB58C7F8CBD8DB5816075
S11303408DBD8A819B810E94C1006C897D898E89C3
S11303509F890E9465076B017C012BEA3AEA4AE215
S113036050E40E941C084B015C0120E030E040E8AE
S11303705FE30E94BF0688230CF46EC0A7019601B8
S1130380C701B6010E9453062B013C0120E03FEF58
S11303904FE757E40E94170818160CF045C020E0F8
S11303A030E04AE754E4C701B6010E94C4064B0199
S11303B05C0120E030E04AEF54E40E941C086B0129
S11303C07C0120E030E040E85FE30E94BF06882320
S11303D02CF120E03FEF4FE757E4C701B6010E943C
S11303E017081816B4F420E030E040E251E4C501E7
S11303F0B4010E941C080E9436076115710569F159
S113040028EC30E0C9010197F1F761507109D1F787
S113041024C0C701B6010E94360702C061E070E043
S1130420CB010197F1F719C020E030E04FE753E426
S1130430C501B4010E941708181644F4C301B2019F
S11304400E943607CB010197F1F709C0C501B40139
S11304500E943607162F01C011E01A95F1F7DF91BB
S1130460CF911F91FF90EF90DF90CF90BF90AF900E
S11304709F908F907F906F905F904F900895FC01B4
S113048080819181228133818217930711F00E9428
S1130490C10008950F931F93CF938C01C62F60E082
S11304A00E948501CF71CEBD00000DB407FEFDCFC3
S11304B08EB58FEF8EBD00000DB407FEFDCFCEB517
S11304C061E0C8010E9485018C2FCF911F910F918B
S11304D00895EF92FF920F931F93CF93DF938C01B4
S11304E0C62FE42EF52ED22F60E00E948501CF7135
S11304F0C062CEBD00000DB407FEFDCFCEB58FEFB8
S11305008D0FDD2359F0EE2DFF2D91919EBD00003E
S11305100DB407FEFDCF9EB58150B8F761E0C80168
S11305200E9485018C2FDF91CF911F910F91FF9035
S1130530EF9008950F931F93CF93DF938C01C62FF1
S1130540D42F1F924F931F926F9387E291E09F9352
S11305508F930E948F0860E0C8010E948501CF71CB
S1130560C062CEBD00000F900F900F900F900F90BF
S11305700F900DB407FEFDCFCEB5DEBD00000DB467
S113058007FEFDCF8EB561E0C8010E9485018C2F66
S1130590DF91CF911F910F910895DF92EF92FF9217
S11305A00F931F93CF93DF938C01D62EE72EF22E59
S11305B0FC01C781DC2F4C1708F4D42FF801808587
S11305C0811102C0CD1B01C0C0E01F92CF931F92C6
S11305D0DF9383E491E09F938F930E948F0860E000
S11305E0C8010E948501FEBC00000F900F900F907F
S11305F00F900F900F900DB407FEFDCFFEB48FEF58
S11306008D0FD11105C08FEF8C0FC1110DC014C017
S1130610ED2DFE2D91919EBD00000DB407FEFDCF82
S11306209EB58150B8F7EFCF1EBC00000DB407FE95
S1130630FDCF9EB58150C0F761E0C8010E948501DD
S11306408F2DDF91CF911F910F91FF90EF90DF904D
S113065008951F93CF93DF93EC01162F60E00E945F
S113066085011EBD00000DB407FEFDCF1EB561E07F
S1130670CE010E948501812FDF91CF911F910895B2
S113068062EE0E942903089561EE0E9429030895F1
S11306906FEF0E9429030895FC01718360835383E3
S11306A04283168280E28783108685E0868785E010
S11306B090E0A0E0B0E0848B958BA68BB78B11867D
S11306C008956D3710F4462F01C04DE765E00E9490
S11306D09A0208954F925F926F927F928F929F92A7
S11306E0AF92BF92CF92DF92EF92FF920F931F933C
S11306F0CF93DF93EC0160E00E943F02688979891F
S11307008A899B890E9465076B017C012BEA3AEA7E
S11307104AE250E40E941C084B015C0120E030E0F6
S113072040E85FE30E94BF0688230CF46EC0A70173
S11307309601C701B6010E9453062B013C0120E03B
S11307403FEF4FE757E40E94170818160CF045C016
S113075020E030E04AE754E4C701B6010E94C40631
S11307604B015C0120E030E04AEF54E40E941C0895
S11307706B017C0120E030E040E85FE30E94BF06AB
S113078088232CF120E03FEF4FE757E4C701B6017F
S11307900E9417081816B4F420E030E040E251E457
S11307A0C501B4010E941C080E9436076115710539
S11307B069F128EC30E0C9010197F1F76150710942
S11307C0D1F724C0C701B6010E94360702C061E018
S11307D070E0CB010197F1F719C020E030E04FE75A
S11307E053E4C501B4010E941708181644F4C30168
S11307F0B2010E943607CB010197F1F709C0C50188
S1130800B4010E943607162F01C011E01A95F1F7C2
S11308106DE1CE010E944A0281FF8DC06889798909
S11308208A899B890E9465076B017C012BEA3AEA5D
S11308304AE250E40E941C084B015C0120E030E0D5
S113084040E85FE30E94BF0688230CF46EC0A70152
S11308509601C701B6010E9453062B013C0120E01A
S11308603FEF4FE757E40E94170818160CF045C0F5
S113087020E030E04AE754E4C701B6010E94C40610
S11308804B015C0120E030E04AEF54E40E941C0874
S11308906B017C0120E030E040E85FE30E94BF068A
S11308A088232CF120E03FEF4FE757E4C701B6015E
S11308B00E9417081816B4F420E030E040E251E436
S11308C0C501B4010E941C080E9436076115710518
S11308D069F128EC30E0C9010197F1F76150710921
S11308E0D1F724C0C701B6010E94360702C061E0F7
S11308F070E0CB010197F1F719C020E030E04FE739
S113090053E4C501B4010E941708181644F4C30146
S1130910B2010E943607CB010197F1F709C0C50166
S1130920B4010E943607062F01C001E00A95F1F7D1
S1130930CE010E94440360E0CE010E944A02482F87
S11309404E7F60E0CE010E949A0262E0CE010E94D6
S11309504A02482F416062E0CE010E949A02DF9170
S1130960CF911F910F91FF90EF90DF90CF90BF90A8
S1130970AF909F908F907F906F905F904F9008956D
S1130980CF93DF93EC0160E00E943F0260E0CE0170
S11309900E944A02482F4D7F60E0CE010E949A02D5
S11309A0DF91CF910895CF93DF93EC0160E00E9433
S11309B04A0281FD0AC0482F426060E0CE010E94D5
S11309C09A0280E197E20197F1F7DF91CF910895C0
S11309D00F93CF93DF93EC01211102C020EA01C0F1
S11309E020EBCE010E94CD02002321F061E0CE0174
S11309F00E943F02DF91CF910F9108950F93CF93FF
S1130A00DF93EC0101E00E94E804CE010E94480358
S1130A108073D9F360E0CE010E943F0240E767E0B3
S1130A20CE010E949A0284FF05C0CE010E944403B5
S1130A3080E001C081E0DF91CF910F91089520E023
S1130A400E94FE0408950F931F93CF93DF93EC014C
S1130A508B012E85AB016AE00E9469022E85A801F4
S1130A6060E1CE010E9469024F8161E1CE010E94E2
S1130A709A02DF91CF911F910F910895CF93DF9345
S1130A80EC0160E00E94850180E58EBD00000DB49C
S1130A9007FEFDCF8EB583E78EBD00000DB407FEC3
S1130AA0FDCF8EB561E0CE010E948501DF91CF912B
S1130AB008950F931F93CF938C01C62F66E00E9475
S1130AC04A02887FC43018F4CC0FCF5F01C0C7E05E
S1130AD04C2F482B66E0C8010E949A02CF911F91C7
S1130AE00F91089566E00E944A02867086950895E3
S1130AF00F931F93CF93DF93EC01062F66E00E94C0
S1130B004A02182F177D023051F410628BE990E0ED
S1130B10A0E0B0E0888B998BAA8BBB8B14C001300A
S1130B2049F085E590E0A0E0B0E0888B998BAA8B32
S1130B30BB8B09C0186081E490E0A0E0B0E0888B32
S1130B40998BAA8BBB8B412F66E0CE010E949A023F
S1130B5066E0CE010E944A0291E0181390E0892FCA
S1130B60DF91CF911F910F9108951F93CF93DF933E
S1130B70EC01888199812A813B818217930779F05E
S1130B8061E070E00E9498008A819B81288139810C
S1130B902817390721F061E070E00E9498000E9454
S1130BA02B0660E0CE010E943F0261E0CE010E946C
S1130BB0850180E197E20197F1F74CE060E0CE0116
S1130BC00E949A024FE564E0CE010E949A0262E01C
S1130BD0CE010E947805882311F081E08E8366E0BF
S1130BE0CE010E944A02182F60E0CE010E947805CF
S1130BF0CE010E943E0540E06DE1CE010E949A02C2
S1130C0040E06CE1CE010E949A02188640E767E05A
S1130C10CE010E949A026CE4CE010E946103CE01CF
S1130C200E944003CE010E944403CE010E94D304DB
S1130C3060E0CE010E944A02482F4E7F60E0CE0160
S1130C400E949A02115081E01E3F08F080E0DF917B
S1130C50CF911F910895CF93CFB7F89480912D022F
S1130C60811118C061E070E08AE090E00E94980071
S1130C708CB580618CBD8CB580648CBD61E070E006
S1130C808DE090E00E94980061E070E08BE090E0DD
S1130C900E94980080912D028F5F80932D02CFBF18
S1130CA0CF9108955058BB27AA270E946A060C9436
S1130CB0DD070E94CF0738F00E94D60720F039F4F0
S1130CC09F3F19F426F40C94CC070EF4E095E7FB4F
S1130CD00C94C607E92F0E94EE0758F3BA1762076F
S1130CE073078407950720F079F4A6F50C9410088F
S1130CF00EF4E0950B2EBA2FA02D0B01B901900133
S1130D000C01CA01A0011124FF27591B99F0593F76
S1130D1050F4503E68F11A16F040A22F232F342FBE
S1130D204427585FF3CF469537952795A795F0400C
S1130D305395C9F77EF41F16BA0B620B730B840B21
S1130D40BAF09150A1F0FF0FBB1F661F771F881FD9
S1130D50C2F70EC0BA0F621F731F841F48F4879531
S1130D6077956795B795F7959E3F08F0B0CF939523
S1130D70880F08F09927EE0F9795879508950E949C
S1130D80A20708F481E008950E94D8060C94DD07B8
S1130D900E94D60758F00E94CF0740F029F45F3F25
S1130DA029F00C94C60751110C9411080C94CC072B
S1130DB00E94EE0768F39923B1F3552391F3951B31
S1130DC0550BBB27AA2762177307840738F09F5F68
S1130DD05F4F220F331F441FAA1FA9F335D00E2ED5
S1130DE03AF0E0E832D091505040E695001CCAF742
S1130DF02BD0FE2F29D0660F771F881FBB1F261705
S1130E0037074807AB07B0E809F0BB0B802DBF01DB
S1130E10FF2793585F4F3AF09E3F510578F00C94AA
S1130E20C6070C9411085F3FE4F3983ED4F386950B
S1130E3077956795B795F7959F5FC9F7880F911DCB
S1130E409695879597F90895E1E0660F771F881FB7
S1130E50BB1F621773078407BA0720F0621B730B6A
S1130E60840BBA0BEE1F88F7E09508950E94F607ED
S1130E7088F09F5798F0B92F9927B751B0F0E1F057
S1130E80660F771F881F991F1AF0BA95C9F714C007
S1130E90B13091F00E941008B1E008950C9410084C
S1130EA0672F782F8827B85F39F0B93FCCF3869540
S1130EB077956795B395D9F73EF49095809570959D
S1130EC061957F4F8F4F9F4F0895E89409C097FB1A
S1130ED03EF490958095709561957F4F8F4F9F4F0D
S1130EE09923A9F0F92F96E9BB279395F695879551
S1130EF077956795B795F111F8CFFAF4BB0F11F414
S1130F0060FF1BC06F5F7F4F8F4F9F4F16C08823BA
S1130F1011F096E911C0772321F09EE8872F762FF0
S1130F2005C0662371F096E8862F70E060E02AF031
S1130F309A95660F771F881FDAF7880F969587951D
S1130F4097F90895990F0008550FAA0BE0E8FEEFF2
S1130F5016161706E807F907C0F012161306E40779
S1130F60F50798F0621B730B840B950B39F40A2672
S1130F7061F0232B242B252B21F408950A2609F450
S1130F80A140A6958FEF811D811D089597F99F6754
S1130F9080E870E060E008959FEF80EC08950024FD
S1130FA00A941616170618060906089500240A94CA
S1130FB012161306140605060895092E0394000C50
S1130FC011F4882352F0BB0F40F4BF2B11F460FFDF
S1130FD004C06F5F7F4F8F4F9F4F089557FD905808
S1130FE0440F551F59F05F3F71F04795880F97FBE9
S1130FF0991F61F09F3F79F08795089512161306A3
S11310001406551FF2CF4695F1DF08C016161706D1
S11310101806991FF1CF8695710561050894089506
S1131020E894BB2766277727CB0197F908950E9498
S1131030A20708F48FEF08950E942F080C94DD078F
S11310400E94CF0738F00E94D60720F0952311F0B4
S11310500C94C6070C94CC0711240C9411080E941C
S1131060EE0770F3959FC1F3950F50E0551F629FF3
S1131070F001729FBB27F00DB11D639FAA27F00DED
S1131080B11DAA1F649F6627B00DA11D661F829F14
S11310902227B00DA11D621F739FB00DA11D621FF9
S11310A0839FA00D611D221F749F3327A00D611D16
S11310B0231F849F600D211D822F762F6A2F1124F8
S11310C09F5750409AF0F1F088234AF0EE0FFF1F2B
S11310D0BB1F661F771F881F91505040A9F79E3F82
S11310E0510580F00C94C6070C9411085F3FE4F39B
S11310F0983ED4F3869577956795B795F795E795D8
S11311009F5FC1F7FE2B880F911D9695879597F9E0
S11311100895EE0FFF1F0590F491E02D0994A0E0CF
S1131120B0E0E5E9F8E00C94460BAE014B5F5F4F8D
S1131130FA0161917191AF01809130029091310275
S11311400E94A508E2E00C94620BABE0B0E0EBEA8D
S1131150F8E00C94360B6C017B018A01FC011782C8
S11311601682838181FFCCC1CE0101963C01F60138
S11311709381F70193FD859193FF81917F018823EA
S113118009F4BAC1853239F493FD859193FF8191B5
S11311907F01853229F4B60190E00E949C0AE7CFD2
S11311A0912C212C312CFFE1F315D8F08B3279F0FE
S11311B038F4803279F08332A1F4232D20611DC0EC
S11311C08D3261F0803369F4232D216016C0832DA4
S11311D08260382EE32DE4603E2E2AC0F32DF860A1
S11311E01DC037FC2DC020ED280F2A3040F08E3270
S11311F0B9F436FC81C1232D2064322E19C036FE89
S113120006C08AE0989E200D1124922E11C0EAE0B7
S11312102E9E200D1124222EF32DF0623F2E08C0A5
S11312208C3621F4832D8068382E02C0883641F430
S1131230F70193FD859193FF81917F018111B3CFD4
S1131240982F9F7D9554933028F40C5F1F4F9FE394
S113125099830DC0833631F0833771F0833509F0FB
S113126059C021C0F801808189830E5F1F4F8824F3
S11312708394912C530113C02801F2E04F0E511CAA
S1131280F801A080B18036FE03C0692D70E002C071
S11312906FEF7FEFC5010E94910A4C018201F32D8B
S11312A0FF773F2E16C0280122E0420E511CF801A0
S11312B0A080B18036FE03C0692D70E002C06FEFDC
S11312C07FEFC5010E94860A4C01F32DF0683F2E82
S11312D0820133FC1BC0822D90E088169906B0F47D
S11312E0B60180E290E00E949C0A2A94F4CFF501B2
S11312F037FC859137FE81915F01B60190E00E9431
S11313009C0A21102A9421E0821A910881149104E4
S113131071F7E8C0843611F0893641F5F80137FEDB
S113132007C060817181828193810C5F1F4F08C067
S113133060817181072E000C880B990B0E5F1F4F83
S1131340F32DFF763F2E97FF09C0909580957095F9
S113135061957F4F8F4F9F4FF0683F2E2AE030E01A
S1131360A3010E94D80A882E861845C0853731F417
S1131370232D2F7EB22E2AE030E025C0932D997FB5
S1131380B92E8F36C1F018F4883579F0B5C080379E
S113139019F0883721F0B0C0E92FE061BE2EB4FE09
S11313A00DC0FB2DF460BF2E09C034FE0AC0292FE6
S11313B02660B22E06C028E030E005C020E130E00F
S11313C002C020E132E0F801B7FE07C060817181FC
S11313D0828193810C5F1F4F06C06081718180E020
S11313E090E00E5F1F4FA3010E94D80A882E861832
S11313F0FB2DFF773F2E36FE0DC0232D2E7FA22E10
S1131400891458F434FE0BC032FC09C0832D8E7E3F
S1131410A82E05C0B82CA32C03C0B82C01C0B92C2D
S1131420A4FE0FC0FE01E80DF11D8081803321F47C
S11314309A2D997EA92E09C0A2FE06C0B394B39436
S113144004C08A2D867809F0B394A3FC11C0A0FED1
S113145006C0B21488F4280C922C9B180EC0B21447
S113146060F4B60180E290E00E949C0AB394F7CF46
S1131470B21418F42B1802C0982C212CA4FE10C00E
S1131480B60180E390E00E949C0AA2FE17C0A1FC72
S113149003C088E790E002C088E590E0B6010CC084
S11314A08A2D867859F0A1FE02C08BE201C080E249
S11314B0A7FC8DE2B60190E00E949C0A891438F4DE
S11314C0B60180E390E00E949C0A9A94F7CF8A9434
S11314D0F301E80DF11D8081B60190E00E949C0AA1
S11314E08110F5CF222009F442CEB60180E290E0CB
S11314F00E949C0A2A94F6CFF6018681978102C045
S11315008FEF9FEF2B96E2E10C94520BFC010590B8
S1131510615070400110D8F7809590958E0F9F1FF1
S11315200895FC016150704001900110D8F7809536
S113153090958E0F9F1F08950F931F93CF93DF9362
S1131540FB01238121FD03C08FEF9FEF2CC022FFFD
S113155016C046815781248135814217530744F4CC
S1131560A081B1819D012F5F3F4F318320838C93F4
S1131570268137812F5F3F4F3783268314C08B0129
S1131580EC01FB010084F185E02D0995892BE1F63E
S1131590D80116968D919C911797019617969C9356
S11315A08E931697CE01DF91CF911F910F910895DD
S11315B0FA01AA27283051F1203181F1E8946F9380
S11315C06E7F6E5F7F4F8F4F9F4FAF4FB1E03ED026
S11315D0B4E03CD0670F781F891F9A1FA11D680FC4
S11315E0791F8A1F911DA11D6A0F711D811D911DF7
S11315F0A11D20D009F468943F912AE0269F11246C
S11316003019305D3193DEF6CF010895462F4770CF
S1131610405D4193B3E00FD0C9F7F6CF462F4F702A
S1131620405D4A3318F0495D31FD4052419302D088
S1131630A9F7EACFB4E0A69597958795779567952E
S1131640BA95C9F700976105710508959B01AC012E
S11316500A2E06945795479537952795BA95C9F755
S1131660620F731F841F951FA01D08952F923F9230
S11316704F925F926F927F928F929F92AF92BF929E
S1131680CF92DF92EF92FF920F931F93CF93DF934A
S1131690CDB7DEB7CA1BDB0B0FB6F894DEBF0FBEA7
S11316A0CDBF09942A88398848885F846E847D84F4
S11316B08C849B84AA84B984C884DF80EE80FD80F6
S11316C00C811B81AA81B981CE0FD11D0FB6F8946C
S11116D0DEBF0FBECDBFED010895F894FFCF2D
S11316DE506F776572204C6576656C3A0050616385
S11316EE6B657420436F756E743A0048656C6C6F4D
S11316FE0030303030310077726974655F7265671F
S113170E697374657228253032782C253032782925
S113171E0D0A005B57726974696E67202575206225
S113172E7974657320257520626C616E6B735D0A26
S113173E005B52656164696E672025752062797459
S113174E657320257520626C616E6B735D0A0053A0
S113175E54415455530909203D20307825303278B0
S113176E2052585F44523D25782054585F44533DCF
S113177E2578204D41585F52543D25782052585FAC
S113178E505F4E4F3D25782054585F46554C4C3D86
S113179E25780D0A004F4253455256455F54583D25
S11317AE253032783A20504F4C535F434E543D25EA
S11317BE78204152435F434E543D25780D0A00254F
S11317CE7309203D0020307825303278000D00203A
S11317DE307800464541545552453D25690D0A0061
S9030000FC
