S011000052465452414E535F312E7372656363
S11300000C9435000C945D000C945D000C945D0020
S11300100C945D000C945D000C94BF020C945D0084
S11300200C945D000C945D000C945D000C945D00D8
S11300300C945D000C945D000C949F020C945D0084
S11300400C945D000C945D000C945D000C945D00B8
S11300500C945D000C945D000C945D000C945D00A8
S11300600C945D000C945D00210511241FBECFEF9C
S1130070D8E0DEBFCDBF11E0A0E0B1E0ECE2F5E1F5
S113008002C005900D92A631B107D9F721E0A6E18F
S1130090B1E001C01D92A433B207E1F710E0C5E35B
S11300A0D0E004C02197FE010E948E0AC433D10718
S11300B0C9F70E94C7040C94940A0C940000CF93CF
S11300C0DF93CDB7DEB781EC90E0FC01108280ECC9
S11300D090E0FC01108282EC90E022EC30E0F90127
S11300E020812E60FC01208384EC90E023E3FC015A
S11300F0208385EC90E0FC01108281EC90E021ECFF
S113010030E0F90120812861FC0120830000DF91A7
S1130110CF910895CF93DF931F92CDB7DEB7898334
S113012080EC90E020E4FC012083000080EC90E06F
S1130130FC018081882F90E080729927892BB1F38C
S113014086EC90E02981FC012083000080EC90E0A3
S1130150FC018081882F90E080749927892BB1F36A
S113016000000F90DF91CF910895CF93DF9300D0DB
S11301701F92CDB7DEB79B838A8319820EC0898113
S1130180882F90E02A813B81820F931FFC0180819C
S11301900E948A0089818F5F89838981882F90E0FA
S11301A02A813B81820F931FFC018081882339F7C8
S11301B000000F900F900F90DF91CF910895CF938F
S11301C0DF9300D01F92CDB7DEB79B838A83198259
S11301D08A819B81929582958F7089279F70892748
S11301E09C01A7E4B3E00E947F0A969587959695B3
S11301F0879596958795805D89838981803319F0E9
S113020089810E948A004A815B81CA019295829504
S11302108F7089279F7089279C01A7E4B3E00E940F
S11302207F0ABC017695679576956795769567956F
S113023020E137E2629FC001639F900D729F900D91
S113024011249A01281B390BC9019B838A838A8153
S11302509B819695879596958795969587959C010C
S1130260A5ECB0E20E947F0A929582958F7089274F
S11302709F708927805D89838981803319F0898102
S11302800E948A004A815B81CA019695879596955A
S11302908795969587959C01A5ECB0E20E947F0A0C
S11302A0BC01729562956F7067277F70672728EE8F
S11302B033E0629FC001639F900D729F900D1124E3
S11302C09A01281B390BC9019B838A838A819B81EC
S11302D096958795969587959C01ABE7B4E10E9426
S11302E07F0A96958795805D89838981803319F08B
S11302F089810E948A004A815B81CA01969587950B
S1130300969587959C01ABE7B4E10E947F0A9C0116
S11303103695279564E6629FC001639F900D112472
S11303209A01281B390BC9019B838A838A819B818B
S11303309C01ADECBCEC0E947F0A9695879596953E
S1130340879596958795805D89838981803319F097
S113035089810E948A004A815B819A01ADECBCECE0
S11303600E947F0A96958795969587959695879589
S1130370880F991F9C01220F331F220F331F820FF6
S1130380931F9A01281B390BC901805D89838981D8
S11303900E948A008AE00E948A0000000F900F9059
S11303A00F90DF91CF910895CF93DF9300D000D0C9
S11303B0CDB7DEB79A8389837C836B838B819C81E1
S11303C0019771F589819A810897B8F084E290E0E9
S11303D024E230E0F9012081622F29813A81A901C8
S11303E04850510921E030E002C0220F331F4A95E2
S11303F0E2F7262BFC01208328C08AE290E02AE25F
S113040030E0F9012081422F21E030E0098002C070
S1130410220F331F0A94E2F7242BFC01208315C01A
S113042089819A81089748F084E290E024E230E0E0
S1130430F9012081FC01208308C08AE290E02AE2CD
S113044030E0F9012081FC01208300000F900F901F
S11304500F900F90DF91CF910895CF93DF9300D049
S11304601F92CDB7DEB79A8389836B83F8948B810F
S1130470882371F189819A810897B8F085E290E028
S113048025E230E0F9012081622F29813A81A90116
S11304904850510921E030E002C0220F331F4A9531
S11304A0E2F7262BFC01208342C08BE290E02BE292
S11304B030E0F9012081422F21E030E0098002C0C0
S11304C0220F331F0A94E2F7242BFC0120832FC050
S11304D089819A810897C0F085E290E025E230E0B6
S11304E0F9012081622F29813A81A90148505109DB
S11304F021E030E002C0220F331F4A95E2F7209535
S11305002623FC01208313C08BE290E02BE230E031
S1130510F9012081422F21E030E0098002C0220F3E
S1130520331F0A94E2F720952423FC012083789456
S113053000000F900F900F90DF91CF9108951F92BC
S11305400F9200905F000F9211248F939F93CF938B
S1130550DF93CDB7DEB78091160190911701019614
S113056090931701809316010000DF91CF919F9122
S11305708F910F9000925F000F901F9018951F921B
S11305800F9200905F000F921124CF93DF93CDB7A9
S1130590DEB70000DF91CF910F9000925F000F90C3
S11305A01F901895CF93DF93CDB7DEB766970FB63C
S11305B0F894DEBF0FBECDBF9E8B8D8B1A8219823D
S11305C01B821C821D821E828CE790E0FC018081CC
S11305D08CE790E0FC0110828CE790E020E4FC01C1
S11305E020838CE790E02CE730E0F9012081322F62
S11305F02D89232BFC01208380E090E0A0E0B0E46F
S11306008F839887A987BA8720E030E04AEF54E4C3
S11306106F81788589859A850E94120ADC01CB0155
S11306208B879C87AD87BE8720E030E040E85FE39E
S11306306B857C858D859E850E94AE0888232CF46D
S113064081E090E0988B8F873FC020E03FEF4FE739
S113065057E46B857C858D859E850E940D0A18164E
S11306604CF520E030E040E251E46F8178858985E3
S11306709A850E94120ADC01CB01BC01CD010E94C3
S11306802C09DC01CB01988B8F870FC088EC90E09C
S11306909A8B898B89899A890197F1F79A8B898B2F
S11306A08F8598890197988B8F878F859889892B57
S11306B069F714C06B857C858D859E850E942C0905
S11306C0DC01CB01988B8F878F8598899C8B8B8BD2
S11306D08B899C890197F1F79C8B8B8B8AE790E03F
S11306E02AE730E0F9012081206CFC01208300001E
S11306F08AE790E0FC018081882F90E0807499273C
S1130700892BB1F788E790E0FC018081882F90E085
S11307109A83898389E790E0FC018081882F90E0A7
S1130720982F88279C0189819A81822B932B9A8305
S1130730898389819A8166960FB6F894DEBF0FBECD
S1130740CDBFDF91CF910895CF93DF93CDB7DEB7BF
S11307502C970FB6F894DEBF0FBECDBF1A82198254
S113076083E393E3A3E5BBE38D839E83AF83B887E1
S11307701C821B8210C085E090E00E94D2029C0182
S113078089819A81820F931F9A8389838B819C81AB
S113079001969C838B838B819C81059764F389816B
S11307A09A819C01ADECBCEC0E947F0A96958795DA
S11307B096958795CC01A0E0B0E0BC01CD010E94E4
S11307C05B09DC01CB012D813E814F815885BC0141
S11307D0CD010E94120ADC01CB012EE93FEE47E471
S11307E05FE3BC01CD010E94B308DC01CB01898722
S11307F09A87AB87BC8720E030E040E251E469850A
S11308007A858B859C850E94120ADC01CB0189873D
S11308109A87AB87BC8769857A858B859C850E947E
S11308202509DC01CB0199231CF49195819591094B
S11308302C960FB6F894DEBF0FBECDBFDF91CF91DB
S11308400895CF93DF93CDB7DEB728970FB6F8940A
S1130850DEBF0FBECDBF1A8219821C821B8210C05C
S113086080E090E00E94D2029C0189819A81820FEB
S1130870931F9A8389838B819C8101969C838B83AC
S11308808B819C81059764F389819A810E94DF00A2
S113089089819A819C01ADECBCEC0E947F0A9695FB
S11308A0879596958795CC01A0E0B0E0BC01CD0179
S11308B00E945B09DC01CB012FE632E143E05EEBF1
S11308C0BC01CD010E94120ADC01CB0120E030E022
S11308D044EF52E4BC01CD010E944208DC01CB018B
S11308E08D839E83AF83B8876D817E818F81988548
S11308F00E942509DC01CB0199231CF49195819573
S1130900910928960FB6F894DEBF0FBECDBFDF91D4
S1130910CF910895CF93DF93CDB7DEB70E94A403A0
S1130920809330010E942104809331018DE18093F2
S113093032010000DF91CF910895CF93DF93CDB7BB
S1130940DEB784E290E024E230E0F9012081216006
S1130950FC01208385E290E025E230E0F90120816A
S1130960FC0120830000DF91CF910895CF93DF93A2
S1130970CDB7DEB785E290E025E230E0F9012081D1
S11309802160FC0120830000DF91CF910895F89449
S11309900E945F000E949D0488E191E00E94AD07DF
S11309A002EE10EF20EF30EF40EF50E060E070E037
S11309B088E191E00E94FD0662E088E191E00E94F6
S11309C0700788E191E00E94520678940E948A049C
S11309D044E060E371E088E191E00E94F906882335
S11309E0B9F3789488E191E00E9484060E94B604E9
S11309F02FEF83E294EF215080409040E1F700C054
S1130A0000000E949D0488E191E00E94970688E11D
S1130A1091E00E94AD0702EE10EF20EF30EF40EFBF
S1130A2050E060E070E088E191E00E94FD0662E041
S1130A3088E191E00E94700788E191E00E945206EB
S1130A40C5CF4AE050E069E070E088E191E00E949F
S1130A5034060895FC01828193810E942D02FDE0F9
S1130A60FA95F1F700000895FC01808191812281BB
S1130A7033818217930711F00E942D0283E091E0E5
S1130A800197F1F700C0000008950F931F93CF93CF
S1130A908C01C62F80E58CBD1DBC60E0C8010E949E
S1130AA02A05CF71CEBD00000DB407FEFDCF8EB573
S1130AB08FEF8EBD00000DB407FEFDCFCEB561E013
S1130AC0C8010E942A058C2FCF911F910F91089580
S1130AD0EF92FF920F931F93CF93DF938C01C62F56
S1130AE0E42EF52ED22F80E58CBD1DBC60E0C8013C
S1130AF00E942A05CF71C062CEBD00000DB407FE6E
S1130B00FDCFCEB58FEF8D0FDD2359F0EE2DFF2DE8
S1130B1091919EBD00000DB407FEFDCF9EB581509E
S1130B20B8F761E0C8010E942A058C2FDF91CF91AC
S1130B301F910F91FF90EF9008950F931F93CF9300
S1130B40DF938C01C62FD42F80E58CBD1DBC60E0E3
S1130B50C8010E942A05CF71C062CEBD00000DB449
S1130B6007FEFDCFCEB5DEBD00000DB407FEFDCF00
S1130B708EB561E0C8010E942A058C2FDF91CF91C8
S1130B801F910F910895DF92EF92FF920F931F939D
S1130B90CF93DF93EC01D62EE72EF22E8F81082F10
S1130BA0481708F4042F9885911103C0182F101BBF
S1130BB001C010E080E58CBD1DBC60E0CE010E9448
S1130BC02A05FEBC00000DB407FEFDCFFEB48FEF76
S1130BD0800F011105C08FEF810F11110DC014C0DA
S1130BE0ED2DFE2D91919EBD00000DB407FEFDCFAD
S1130BF09EB58150B8F7EFCF1EBC00000DB407FEC0
S1130C00FDCF9EB58150C0F761E0CE010E942A0558
S1130C108F2DDF91CF911F910F91FF90EF90DF9077
S1130C2008951F93CF93DF93EC01162F80E58CBDBD
S1130C301DBC60E0CE010E942A051EBD00000DB45B
S1130C4007FEFDCF1EB561E0CE010E942A05812F6B
S1130C50DF91CF911F91089562EE0E9411060895CD
S1130C6061EE0E9411060895FC0171836083538331
S1130C704283168280E28783108685E0868785E03A
S1130C8090E0A0E0B0E0848B958BA68BB78B1186A7
S1130C9008956D3710F4462F01C04DE765E00E94BA
S1130CA09D050895CF93DF93EC0160E00E94340525
S1130CB08BE692E00197F1F700C000006DE1CE01F0
S1130CC00E94450581FF09C08BE692E00197F1F788
S1130CD000C00000CE010E94300660E0CE010E94F8
S1130CE04505482F4E7F60E0CE010E949D0562E0DD
S1130CF0CE010E944505482F416062E0CE010E946A
S1130D009D05DF91CF910895CF93DF93EC0160E0CF
S1130D100E94340560E0CE010E944505482F4D7FB6
S1130D2060E0CE010E949D05DF91CF9108951F934D
S1130D30CF93DF93EC0160E00E944505182F60E03B
S1130D40CE010E94450590E00E94DF0011FD1BC00A
S1130D5080E091E00E94B500412F426060E0CE0146
S1130D600E949D058FE59AEE0197F1F700C00000FF
S1130D7060E0CE010E94450590E00E94DF0086E01D
S1130D8091E00E94B500DF91CF911F9108950F93D8
S1130D90CF93DF93EC01211102C020EA01C020EBC4
S1130DA0CE010E94C305002321F061E0CE010E9420
S1130DB03405DF91CF910F9108950F93CF93DF9373
S1130DC0EC0101E00E94C70660E0CE010E943405F8
S1130DD040E767E0CE010E949D0584FF05C0CE0177
S1130DE00E94300680E001C081E0DF91CF910F9135
S1130DF0089520E00E94DD060895EF92FF920F937C
S1130E001F93CF93DF93CDB7DEB728970FB6F8942F
S1130E10DEBF0FBECDBF7C0109831A832B833C83C5
S1130E204D835E836F837887FC012685AE014F5F17
S1130E305F4F6AE00E946805F7012685AE014F5FA7
S1130E405F4F60E1C7010E946805F701478161E1D6
S1130E50C7010E949D0528960FB6F894DEBF0FBE09
S1130E60CDBFDF91CF911F910F91FF90EF90089527
S1130E701F93CF93DF93EC0110E51CBD1DBC60E014
S1130E800E942A051EBD00000DB407FEFDCF8EB5DD
S1130E9083E78EBD00000DB407FEFDCF8EB561E083
S1130EA0CE010E942A05DF91CF911F9108950F93DF
S1130EB01F93CF938C01C62F66E00E944505887F5F
S1130EC0C43018F4CC0FCF5F01C0C7E04C2F482BBF
S1130ED066E0C8010E949D05CF911F910F9108956E
S1130EE00F931F93CF93DF93EC01062F66E00E94CC
S1130EF04505182F177D023051F410628BE990E0FC
S1130F00A0E0B0E0888B998BAA8BBB8B14C0013016
S1130F1049F085E590E0A0E0B0E0888B998BAA8B3E
S1130F20BB8B09C0186081E490E0A0E0B0E0888B3E
S1130F30998BAA8BBB8B412F66E0CE010E949D0545
S1130F4066E0CE010E94450591E0181390E0892FD8
S1130F50DF91CF911F910F9108951F93CF93DF934A
S1130F60EC01888199812A813B818217930721F0C2
S1130F7061E070E00E94D40161E070E08A819B81AD
S1130F800E94D4010E94280860E0CE010E9434052A
S1130F9061E0CE010E942A058FE097E20197F1F704
S1130FA000C000004CE060E0CE010E949D054FE5CA
S1130FB064E0CE010E949D0563E0CE010E945707C4
S1130FC062E0CE010E947007882311F081E08E83D5
S1130FD066E0CE010E944505182F8E3011F481E0A1
S1130FE08E8360E0CE010E947007CE010E94380714
S1130FF040E06DE1CE010E949D0540E06CE1CE0130
S11310000E949D05188640E767E0CE010E949D0579
S11310106CE4CE010E944906CE010E942C06CE014A
S11310200E943006CE010E94970660E0CE010E9425
S11310304505482F4E7F60E0CE010E949D0511506A
S113104081E01E3F08F080E0DF91CF911F91089569
S113105061E070E08AE090E00E94D4018CB5806188
S11310608CBD8CB580648CBD61E070E08DE090E057
S11310700E94D40161E070E08BE090E00E94D40112
S113108008955058BB27AA270E9459080C94D309E5
S11310900E94C50938F00E94CC0920F039F49F3F22
S11310A019F426F40C94C2090EF4E095E7FB0C94B1
S11310B0BC09E92F0E94E40958F3BA1762077307C1
S11310C08407950720F079F4A6F50C94060A0EF42B
S11310D0E0950B2EBA2FA02D0B01B90190010C0144
S11310E0CA01A0011124FF27591B99F0593F50F45C
S11310F0503E68F11A16F040A22F232F342F4427B4
S1131100585FF3CF469537952795A795F0405395AB
S1131110C9F77EF41F16BA0B620B730B840BBAF07B
S11311209150A1F0FF0FBB1F661F771F881FC2F7E6
S11311300EC0BA0F621F731F841F48F487957795FA
S11311406795B795F7959E3F08F0B0CF9395880FB4
S113115008F09927EE0F9795879508950E949809AE
S113116008F481E008950E94C7080C94D3090E94F2
S1131170CC0958F00E94C50940F029F45F3F29F0DA
S11311800C94BC0951110C94070A0C94C2090E94D6
S1131190E40968F39923B1F3552391F3951B550B97
S11311A0BB27AA2762177307840738F09F5F5F4F36
S11311B0220F331F441FAA1FA9F335D00E2E3AF075
S11311C0E0E832D091505040E695001CCAF72BD08D
S11311D0FE2F29D0660F771F881FBB1F26173707DE
S11311E04807AB07B0E809F0BB0B802DBF01FF2710
S11311F093585F4F3AF09E3F510578F00C94BC0928
S11312000C94070A5F3FE4F3983ED4F386957795F0
S11312106795B795F7959F5FC9F7880F911D9695C8
S1131220879597F90895E1E0660F771F881FBB1F24
S1131230621773078407BA0720F0621B730B840BD1
S1131240BA0BEE1F88F7E09508950E942C09689464
S1131250B1110C94070A08950E94EC0988F09F5775
S113126098F0B92F9927B751B0F0E1F0660F771FC6
S1131270881F991F1AF0BA95C9F714C0B13091F0BC
S11312800E94060AB1E008950C94060A672F782F8D
S11312908827B85F39F0B93FCCF386957795679581
S11312A0B395D9F73EF490958095709561957F4FED
S11312B08F4F9F4F0895E89409C097FB3EF4909593
S11312C08095709561957F4F8F4F9F4F9923A9F01B
S11312D0F92F96E9BB279395F695879577956795AA
S11312E0B795F111F8CFFAF4BB0F11F460FF1BC0EE
S11312F06F5F7F4F8F4F9F4F16C0882311F096E981
S113130011C0772321F09EE8872F762F05C066232E
S113131071F096E8862F70E060E02AF09A95660FE7
S1131320771F881FDAF7880F9695879597F90895A0
S1131330990F0008550FAA0BE0E8FEEF16161706E2
S1131340E807F907C0F012161306E407F50798F04A
S1131350621B730B840B950B39F40A2661F0232B63
S1131360242B252B21F408950A2609F4A140A695DF
S11313708FEF811D811D089597F99F6780E870E0C4
S113138060E008959FEF80EC089500240A941616F7
S1131390170618060906089500240A94121613065F
S11313A0140605060895092E0394000C11F48823ED
S11313B052F0BB0F40F4BF2B11F460FF04C06F5F09
S11313C07F4F8F4F9F4F089557FD9058440F551FDF
S11313D059F05F3F71F04795880F97FB991F61F0B3
S11313E09F3F79F087950895121613061406551F2A
S11313F0F2CF4695F1DF08C0161617061806991F96
S1131400F1CF86957105610508940895E894BB278A
S113141066277727CB0197F908950E94980908F465
S11314208FEF08950E94250A0C94D3090E94C509E0
S113143038F00E94CC0920F0952311F00C94BC09DB
S11314400C94C20911240C94070A0E94E40970F355
S1131450959FC1F3950F50E0551F629FF001729F55
S1131460BB27F00DB11D639FAA27F00DB11DAA1F64
S1131470649F6627B00DA11D661F829F2227B00DB1
S1131480A11D621F739FB00DA11D621F839FA00D3C
S1131490611D221F749F3327A00D611D231F849F8C
S11314A0600D211D822F762F6A2F11249F575040E3
S11314B09AF0F1F088234AF0EE0FFF1FBB1F661F5E
S11314C0771F881F91505040A9F79E3F510580F027
S11314D00C94BC090C94070A5F3FE4F3983ED4F3E0
S11314E0869577956795B795F795E7959F5FC1F7CB
S11314F0FE2B880F911D9695879597F90895A29FC5
S1131500B001B39FC001A39F700D811D1124911DD3
S1131510B29F700D811D1124911D0895EE0FFF1FC0
S10F15200590F491E02D0994F894FFCF9D
S113152C504F574552005000464541545552453D85
S109153C25690D0A000000
S9030000FC
