:100000000C945C000C946E000C946E000C946E00CA
:100010000C946E000C946E000C94D9000C946E003D
:100020000C946E000C946E000C946E000C946E0098
:100030000C946E000C946E000C946E000C946E0088
:100040000C948F000C946E000C946E000C946E0057
:100050000C946E000C946E000C946E000C946E0068
:100060000C946E000C946E00000000080002010069
:100070000003040700000000000000000000000072
:10008000250028002B0000000000240027002A0083
:10009000040404040404040402020202020203032E
:1000A0000303030301020408102040800102040836
:1000B000102001020408102011241FBECFEFD8E049
:1000C000DEBFCDBF21E0A0E0B1E001C01D92A930AC
:1000D000B207E1F70E94E3000C94A4010C94000025
:1000E00090E0FC01EC55FF4F2491FC01E057FF4FDD
:1000F0008491882399F090E0880F991FFC01EA57BA
:10010000FF4FA591B491FC01E458FF4F8591949164
:100110008FB7F894EC91E22BEC938FBF08951F9268
:100120000F920FB60F9211242F933F938F939F93AB
:10013000AF93BF938091050190910601A0910701B3
:10014000B09108013091040126E0230F2D3720F4EF
:100150000296A11DB11D05C029E8230F0396A11D1C
:10016000B11D209304018093050190930601A09393
:100170000701B09308018091000190910101A091C5
:100180000201B09103010196A11DB11D80930001F0
:1001900090930101A0930201B0930301BF91AF912D
:1001A0009F918F913F912F910F900FBE0F901F90B5
:1001B00018951F920F920FB60F9211240F900FBE39
:1001C0000F901F901895789484B5826084BD84B593
:1001D000816084BD85B5826085BD85B5816085BD42
:1001E00080916E00816080936E00109281008091FA
:1001F0008100826080938100809181008160809382
:100200008100809180008160809380008091B100A6
:1002100084608093B1008091B00081608093B000D1
:1002200080917A00846080937A0080917A00826065
:1002300080937A0080917A008E7F80937A008091FB
:100240007A00806880937A001092C10088E00E9452
:100250007000E0E7F0E08491ECEAF0E09491E8E9E6
:10026000F0E0E491EE23B1F1882339F1833091F08D
:1002700038F48130A9F0823001F584B58F7D12C049
:10028000873091F08830A1F08430B9F480918000FB
:100290008F7D03C0809180008F77809380000DC098
:1002A00084B58F7784BD09C08091B0008F7703C07B
:1002B0008091B0008F7D8093B000F0E0EE0FFF1FC3
:1002C000E458FF4FA591B4918FB7F894EC919E2B11
:1002D0009C938FBFC0E08C2F0E947000CF5FC43111
:1002E000D1F788E18093600081E280936000809183
:1002F000600080648093600080917A008F778093A3
:100300007A008FE380937E0083E080937F0083B741
:10031000846083BF83B7816083BFC0E0D0E085B7CE
:10032000806685BF85B78F79806485BF889585B7DE
:10033000806685BF85B78F79806485BF8895209753
:0C03400071F30E940000EBCFF894FFCF97
:00000001FF
