:100000000C9434000C9451000C9451000C94510049
:100010000C9451000C9451000C94C2000C945100AB
:100020000C9451000C9451000C9451000C9451000C
:100030000C9451000C9451000C94AB000C945100A2
:100040000C9451000C9451000C9451000C945100EC
:100050000C9451000C9451000C9451000C945100DC
:100060000C9451000C94510011241FBECFEFD8E026
:10007000DEBFCDBF11E0A0E0B1E0E0EBF2E002C0F6
:1000800005900D92A231B107D9F721E0A2E1B1E0CC
:1000900001C01D92A431B207E1F70E94CC000C947C
:1000A00056010C940000E1ECF0E010821092C000C8
:1000B000A2ECB0E08C918E608C938EEC8093C400A7
:1000C0001092C50080818861808308958091C0006E
:1000D00080720895E0ECF0E080818823ECF7809155
:1000E000C600089590E49093C000E0ECF0E09081A9
:1000F00095FFFDCF8093C600E0ECF0E0808186FFA5
:10010000FDCF089561307105F1F48830910570F0EC
:1001100044B1089721E030E0B90102C0660F771FB3
:100120008A95E2F7CB01842B84B908954AB121E086
:1001300030E0B90102C0660F771F8A95E2F7CB0164
:10014000842B8AB90895089718F084B184B908956A
:100150008AB18AB908951F920F920FB60F92112497
:100160008F939F9380911201909113010196909328
:100170001301809312019F918F910F900FBE0F90EA
:100180001F9018951F920F920FB60F9211240F9087
:100190000FBE0F901F90189561E070E083E090E033
:1001A0000E9482000E9453000F2EF5E0CF2EF1E056
:1001B000DF2EF02D0F2EF9E0EF2EF1E0FF2EF02DC7
:1001C0000DE011E00F2EF1E16F2EF1E07F2EF02D0A
:1001D0000F2EF8ECAF2EB12CF02D0E946600882374
:1001E000E1F30E946A00833409F04EC0809100015F
:1001F000853008F049C0813009F04FC0CDE0D1E032
:1002000089910E947200C615D705D1F7809100012F
:10021000823009F045C00F2EF9E08F2EF1E09F2EBD
:10022000F02DF40181914F010E9472008016910619
:10023000C1F7809100018330B1F50F2EF5E08F2ECC
:10024000F1E09F2EF02DF40181914F010E94720088
:100250008E149F04C1F780910001843081F40F2E29
:10026000F1E08F2EF1E09F2EF02DF40181914F01EE
:100270000E947200C814D904C1F710920001809145
:1002800000018F5F809300018FEF9FEFF5013197A1
:10029000F1F7019709F4A1CFF9CF823051F6BBCF26
:1002A0008330C9F6CACF843051F7D9CFF894FFCF45
:1002B00001372D1F042D2D200323552102194B2218
:0202C00001003B
:00000001FF
